{
  "_format": "hh-sol-artifact-1",
  "contractName": "CrossChainManager",
  "sourceName": "contracts/CrossChainManager.sol",
  "abi": [
    {
      "inputs": [
        {
          "internalType": "address",
          "name": "_owner",
          "type": "address"
        },
        {
          "internalType": "address",
          "name": "_resolver",
          "type": "address"
        },
        {
          "internalType": "address",
          "name": "_crossChainStateAddress",
          "type": "address"
        },
        {
          "internalType": "address",
          "name": "_debtManagerAddress",
          "type": "address"
        }
      ],
      "payable": false,
      "stateMutability": "nonpayable",
      "type": "constructor"
    },
    {
      "anonymous": false,
      "inputs": [
        {
          "indexed": false,
          "internalType": "bytes32",
          "name": "name",
          "type": "bytes32"
        },
        {
          "indexed": false,
          "internalType": "address",
          "name": "destination",
          "type": "address"
        }
      ],
      "name": "CacheUpdated",
      "type": "event"
    },
    {
      "anonymous": false,
      "inputs": [
        {
          "indexed": false,
          "internalType": "address",
          "name": "oldOwner",
          "type": "address"
        },
        {
          "indexed": false,
          "internalType": "address",
          "name": "newOwner",
          "type": "address"
        }
      ],
      "name": "OwnerChanged",
      "type": "event"
    },
    {
      "anonymous": false,
      "inputs": [
        {
          "indexed": false,
          "internalType": "address",
          "name": "newOwner",
          "type": "address"
        }
      ],
      "name": "OwnerNominated",
      "type": "event"
    },
    {
      "constant": false,
      "inputs": [],
      "name": "acceptOwnership",
      "outputs": [],
      "payable": false,
      "stateMutability": "nonpayable",
      "type": "function"
    },
    {
      "constant": false,
      "inputs": [
        {
          "internalType": "bytes32",
          "name": "_chainID",
          "type": "bytes32"
        }
      ],
      "name": "addCrosschain",
      "outputs": [],
      "payable": false,
      "stateMutability": "nonpayable",
      "type": "function"
    },
    {
      "constant": false,
      "inputs": [
        {
          "internalType": "uint256",
          "name": "_amount",
          "type": "uint256"
        }
      ],
      "name": "addCurrentNetworkIssuedDebt",
      "outputs": [],
      "payable": false,
      "stateMutability": "nonpayable",
      "type": "function"
    },
    {
      "constant": false,
      "inputs": [
        {
          "internalType": "bytes32",
          "name": "_chainID",
          "type": "bytes32"
        },
        {
          "internalType": "uint256",
          "name": "_amount",
          "type": "uint256"
        }
      ],
      "name": "addIssuedDebt",
      "outputs": [],
      "payable": false,
      "stateMutability": "nonpayable",
      "type": "function"
    },
    {
      "constant": false,
      "inputs": [
        {
          "internalType": "bytes32",
          "name": "_chainID",
          "type": "bytes32"
        },
        {
          "internalType": "uint256",
          "name": "_networkId",
          "type": "uint256"
        }
      ],
      "name": "addNetworkId",
      "outputs": [],
      "payable": false,
      "stateMutability": "nonpayable",
      "type": "function"
    },
    {
      "constant": false,
      "inputs": [
        {
          "internalType": "uint256",
          "name": "amount",
          "type": "uint256"
        }
      ],
      "name": "addTotalNetworkDebt",
      "outputs": [],
      "payable": false,
      "stateMutability": "nonpayable",
      "type": "function"
    },
    {
      "constant": false,
      "inputs": [
        {
          "internalType": "uint256",
          "name": "totalNetworkDebt",
          "type": "uint256"
        }
      ],
      "name": "appendTotalNetworkDebt",
      "outputs": [],
      "payable": false,
      "stateMutability": "nonpayable",
      "type": "function"
    },
    {
      "constant": false,
      "inputs": [
        {
          "internalType": "address",
          "name": "account",
          "type": "address"
        }
      ],
      "name": "clearCrossNetworkUserDebt",
      "outputs": [],
      "payable": false,
      "stateMutability": "nonpayable",
      "type": "function"
    },
    {
      "constant": true,
      "inputs": [],
      "name": "crossChainState",
      "outputs": [
        {
          "internalType": "address",
          "name": "",
          "type": "address"
        }
      ],
      "payable": false,
      "stateMutability": "view",
      "type": "function"
    },
    {
      "constant": true,
      "inputs": [],
      "name": "currentNetworkDebtPercentage",
      "outputs": [
        {
          "internalType": "uint256",
          "name": "",
          "type": "uint256"
        }
      ],
      "payable": false,
      "stateMutability": "view",
      "type": "function"
    },
    {
      "constant": true,
      "inputs": [],
      "name": "currentTotalNetworkDebt",
      "outputs": [
        {
          "internalType": "uint256",
          "name": "",
          "type": "uint256"
        }
      ],
      "payable": false,
      "stateMutability": "view",
      "type": "function"
    },
    {
      "constant": true,
      "inputs": [],
      "name": "debtManager",
      "outputs": [
        {
          "internalType": "address",
          "name": "",
          "type": "address"
        }
      ],
      "payable": false,
      "stateMutability": "view",
      "type": "function"
    },
    {
      "constant": true,
      "inputs": [
        {
          "internalType": "bytes32",
          "name": "_chainID",
          "type": "bytes32"
        }
      ],
      "name": "getCrossNetworkActiveDebt",
      "outputs": [
        {
          "internalType": "uint256",
          "name": "",
          "type": "uint256"
        }
      ],
      "payable": false,
      "stateMutability": "view",
      "type": "function"
    },
    {
      "constant": true,
      "inputs": [],
      "name": "getCrossNetworkActiveDebtAll",
      "outputs": [
        {
          "internalType": "uint256",
          "name": "",
          "type": "uint256"
        }
      ],
      "payable": false,
      "stateMutability": "view",
      "type": "function"
    },
    {
      "constant": true,
      "inputs": [],
      "name": "getCrossNetworkInboundAll",
      "outputs": [
        {
          "internalType": "uint256",
          "name": "",
          "type": "uint256"
        }
      ],
      "payable": false,
      "stateMutability": "view",
      "type": "function"
    },
    {
      "constant": true,
      "inputs": [
        {
          "internalType": "bytes32",
          "name": "_chainID",
          "type": "bytes32"
        }
      ],
      "name": "getCrossNetworkIssuedDebt",
      "outputs": [
        {
          "internalType": "uint256",
          "name": "",
          "type": "uint256"
        }
      ],
      "payable": false,
      "stateMutability": "view",
      "type": "function"
    },
    {
      "constant": true,
      "inputs": [],
      "name": "getCrossNetworkIssuedDebtAll",
      "outputs": [
        {
          "internalType": "uint256",
          "name": "",
          "type": "uint256"
        }
      ],
      "payable": false,
      "stateMutability": "view",
      "type": "function"
    },
    {
      "constant": true,
      "inputs": [],
      "name": "getCurrentNetworkActiveDebt",
      "outputs": [
        {
          "internalType": "uint256",
          "name": "",
          "type": "uint256"
        }
      ],
      "payable": false,
      "stateMutability": "view",
      "type": "function"
    },
    {
      "constant": true,
      "inputs": [
        {
          "internalType": "bytes32",
          "name": "currencyKey",
          "type": "bytes32"
        }
      ],
      "name": "getCurrentNetworkAdaptedActiveDebtValue",
      "outputs": [
        {
          "internalType": "uint256",
          "name": "totalSystemValue",
          "type": "uint256"
        },
        {
          "internalType": "bool",
          "name": "anyRateIsInvalid",
          "type": "bool"
        }
      ],
      "payable": false,
      "stateMutability": "view",
      "type": "function"
    },
    {
      "constant": true,
      "inputs": [],
      "name": "getCurrentNetworkDebt",
      "outputs": [
        {
          "internalType": "uint256",
          "name": "currentNetworkDebt",
          "type": "uint256"
        },
        {
          "internalType": "bool",
          "name": "anyRateIsInvalid",
          "type": "bool"
        }
      ],
      "payable": false,
      "stateMutability": "view",
      "type": "function"
    },
    {
      "constant": true,
      "inputs": [],
      "name": "getCurrentNetworkIssuedDebt",
      "outputs": [
        {
          "internalType": "uint256",
          "name": "",
          "type": "uint256"
        }
      ],
      "payable": false,
      "stateMutability": "view",
      "type": "function"
    },
    {
      "constant": true,
      "inputs": [
        {
          "internalType": "uint256",
          "name": "_inboundOutbound",
          "type": "uint256"
        },
        {
          "internalType": "uint256",
          "name": "targetNetworkId",
          "type": "uint256"
        }
      ],
      "name": "getMovedAmount",
      "outputs": [
        {
          "internalType": "uint256",
          "name": "",
          "type": "uint256"
        }
      ],
      "payable": false,
      "stateMutability": "view",
      "type": "function"
    },
    {
      "constant": true,
      "inputs": [
        {
          "internalType": "bytes32",
          "name": "_chainID",
          "type": "bytes32"
        }
      ],
      "name": "getNetworkId",
      "outputs": [
        {
          "internalType": "uint256",
          "name": "",
          "type": "uint256"
        }
      ],
      "payable": false,
      "stateMutability": "view",
      "type": "function"
    },
    {
      "constant": true,
      "inputs": [
        {
          "internalType": "bytes32",
          "name": "currencyKey",
          "type": "bytes32"
        }
      ],
      "name": "getTotalNetworkAdaptedTotalSystemValue",
      "outputs": [
        {
          "internalType": "uint256",
          "name": "totalSystemValue",
          "type": "uint256"
        },
        {
          "internalType": "bool",
          "name": "anyRateIsInvalid",
          "type": "bool"
        }
      ],
      "payable": false,
      "stateMutability": "view",
      "type": "function"
    },
    {
      "constant": true,
      "inputs": [],
      "name": "isResolverCached",
      "outputs": [
        {
          "internalType": "bool",
          "name": "",
          "type": "bool"
        }
      ],
      "payable": false,
      "stateMutability": "view",
      "type": "function"
    },
    {
      "constant": true,
      "inputs": [
        {
          "internalType": "uint256",
          "name": "_index",
          "type": "uint256"
        }
      ],
      "name": "networkDebtPercentageAtIndex",
      "outputs": [
        {
          "internalType": "uint256",
          "name": "",
          "type": "uint256"
        }
      ],
      "payable": false,
      "stateMutability": "view",
      "type": "function"
    },
    {
      "constant": false,
      "inputs": [
        {
          "internalType": "address",
          "name": "_owner",
          "type": "address"
        }
      ],
      "name": "nominateNewOwner",
      "outputs": [],
      "payable": false,
      "stateMutability": "nonpayable",
      "type": "function"
    },
    {
      "constant": true,
      "inputs": [],
      "name": "nominatedOwner",
      "outputs": [
        {
          "internalType": "address",
          "name": "",
          "type": "address"
        }
      ],
      "payable": false,
      "stateMutability": "view",
      "type": "function"
    },
    {
      "constant": true,
      "inputs": [],
      "name": "owner",
      "outputs": [
        {
          "internalType": "address",
          "name": "",
          "type": "address"
        }
      ],
      "payable": false,
      "stateMutability": "view",
      "type": "function"
    },
    {
      "constant": false,
      "inputs": [],
      "name": "rebuildCache",
      "outputs": [],
      "payable": false,
      "stateMutability": "nonpayable",
      "type": "function"
    },
    {
      "constant": true,
      "inputs": [],
      "name": "resolver",
      "outputs": [
        {
          "internalType": "contract AddressResolver",
          "name": "",
          "type": "address"
        }
      ],
      "payable": false,
      "stateMutability": "view",
      "type": "function"
    },
    {
      "constant": true,
      "inputs": [],
      "name": "resolverAddressesRequired",
      "outputs": [
        {
          "internalType": "bytes32[]",
          "name": "addresses",
          "type": "bytes32[]"
        }
      ],
      "payable": false,
      "stateMutability": "view",
      "type": "function"
    },
    {
      "constant": false,
      "inputs": [
        {
          "internalType": "address",
          "name": "crossChainStateAddress",
          "type": "address"
        }
      ],
      "name": "setCrossChainState",
      "outputs": [],
      "payable": false,
      "stateMutability": "nonpayable",
      "type": "function"
    },
    {
      "constant": false,
      "inputs": [
        {
          "internalType": "bytes32",
          "name": "_chainID",
          "type": "bytes32"
        },
        {
          "internalType": "uint256",
          "name": "_amount",
          "type": "uint256"
        }
      ],
      "name": "setCrossNetworkActiveDebt",
      "outputs": [],
      "payable": false,
      "stateMutability": "nonpayable",
      "type": "function"
    },
    {
      "constant": false,
      "inputs": [
        {
          "internalType": "bytes32[]",
          "name": "_chainIDs",
          "type": "bytes32[]"
        },
        {
          "internalType": "uint256[]",
          "name": "_amounts",
          "type": "uint256[]"
        }
      ],
      "name": "setCrossNetworkActiveDebtAll",
      "outputs": [],
      "payable": false,
      "stateMutability": "nonpayable",
      "type": "function"
    },
    {
      "constant": false,
      "inputs": [
        {
          "internalType": "bytes32[]",
          "name": "_chainIDs",
          "type": "bytes32[]"
        },
        {
          "internalType": "uint256[]",
          "name": "_issuedDebts",
          "type": "uint256[]"
        },
        {
          "internalType": "uint256[]",
          "name": "_activeDebts",
          "type": "uint256[]"
        },
        {
          "internalType": "uint256[]",
          "name": "_inbounds",
          "type": "uint256[]"
        }
      ],
      "name": "setCrossNetworkDebtsAll",
      "outputs": [],
      "payable": false,
      "stateMutability": "nonpayable",
      "type": "function"
    },
    {
      "constant": false,
      "inputs": [
        {
          "internalType": "bytes32[]",
          "name": "_chainIDs",
          "type": "bytes32[]"
        },
        {
          "internalType": "uint256[]",
          "name": "_amounts",
          "type": "uint256[]"
        }
      ],
      "name": "setCrossNetworkInboundAll",
      "outputs": [],
      "payable": false,
      "stateMutability": "nonpayable",
      "type": "function"
    },
    {
      "constant": false,
      "inputs": [
        {
          "internalType": "bytes32",
          "name": "_chainID",
          "type": "bytes32"
        },
        {
          "internalType": "uint256",
          "name": "_amount",
          "type": "uint256"
        }
      ],
      "name": "setCrossNetworkIssuedDebt",
      "outputs": [],
      "payable": false,
      "stateMutability": "nonpayable",
      "type": "function"
    },
    {
      "constant": false,
      "inputs": [
        {
          "internalType": "bytes32[]",
          "name": "_chainIDs",
          "type": "bytes32[]"
        },
        {
          "internalType": "uint256[]",
          "name": "_amounts",
          "type": "uint256[]"
        }
      ],
      "name": "setCrossNetworkIssuedDebtAll",
      "outputs": [],
      "payable": false,
      "stateMutability": "nonpayable",
      "type": "function"
    },
    {
      "constant": false,
      "inputs": [
        {
          "internalType": "address",
          "name": "account",
          "type": "address"
        },
        {
          "internalType": "uint256",
          "name": "userStateDebtLedgerIndex",
          "type": "uint256"
        }
      ],
      "name": "setCrossNetworkUserDebt",
      "outputs": [],
      "payable": false,
      "stateMutability": "nonpayable",
      "type": "function"
    },
    {
      "constant": false,
      "inputs": [
        {
          "internalType": "bytes32",
          "name": "_chainID",
          "type": "bytes32"
        }
      ],
      "name": "setCrosschain",
      "outputs": [],
      "payable": false,
      "stateMutability": "nonpayable",
      "type": "function"
    },
    {
      "constant": false,
      "inputs": [
        {
          "internalType": "address",
          "name": "debtManagerAddress",
          "type": "address"
        }
      ],
      "name": "setDebtManager",
      "outputs": [],
      "payable": false,
      "stateMutability": "nonpayable",
      "type": "function"
    },
    {
      "constant": false,
      "inputs": [],
      "name": "setInitialCurrentIssuedDebt",
      "outputs": [],
      "payable": false,
      "stateMutability": "nonpayable",
      "type": "function"
    },
    {
      "constant": false,
      "inputs": [
        {
          "internalType": "uint256",
          "name": "_amount",
          "type": "uint256"
        }
      ],
      "name": "subtractCurrentNetworkIssuedDebt",
      "outputs": [],
      "payable": false,
      "stateMutability": "nonpayable",
      "type": "function"
    },
    {
      "constant": false,
      "inputs": [
        {
          "internalType": "bytes32",
          "name": "_chainID",
          "type": "bytes32"
        },
        {
          "internalType": "uint256",
          "name": "_amount",
          "type": "uint256"
        }
      ],
      "name": "subtractIssuedDebt",
      "outputs": [],
      "payable": false,
      "stateMutability": "nonpayable",
      "type": "function"
    },
    {
      "constant": false,
      "inputs": [
        {
          "internalType": "uint256",
          "name": "amount",
          "type": "uint256"
        }
      ],
      "name": "subtractTotalNetworkDebt",
      "outputs": [],
      "payable": false,
      "stateMutability": "nonpayable",
      "type": "function"
    },
    {
      "constant": true,
      "inputs": [
        {
          "internalType": "uint256",
          "name": "index",
          "type": "uint256"
        }
      ],
      "name": "totalNetworkDebtAtIndex",
      "outputs": [
        {
          "internalType": "uint256",
          "name": "",
          "type": "uint256"
        }
      ],
      "payable": false,
      "stateMutability": "view",
      "type": "function"
    },
    {
      "constant": true,
      "inputs": [],
      "name": "totalNetworkDebtEntryLength",
      "outputs": [
        {
          "internalType": "uint256",
          "name": "",
          "type": "uint256"
        }
      ],
      "payable": false,
      "stateMutability": "view",
      "type": "function"
    },
    {
      "constant": true,
      "inputs": [
        {
          "internalType": "address",
          "name": "account",
          "type": "address"
        }
      ],
      "name": "userIssuanceDataForTotalNetwork",
      "outputs": [
        {
          "internalType": "uint256",
          "name": "crossChainDebtEntryIndex",
          "type": "uint256"
        },
        {
          "internalType": "uint256",
          "name": "userStateDebtLedgerIndex",
          "type": "uint256"
        }
      ],
      "payable": false,
      "stateMutability": "view",
      "type": "function"
    }
  ],
  "bytecode": "0x60806040523480156200001157600080fd5b5060405162004ad038038062004ad0833981810160405260808110156200003757600080fd5b81019080805190602001909291908051906020019092919080519060200190929190805190602001909291905050508284600073ffffffffffffffffffffffffffffffffffffffff168173ffffffffffffffffffffffffffffffffffffffff1614156200010c576040517f08c379a00000000000000000000000000000000000000000000000000000000081526004018080602001828103825260198152602001807f4f776e657220616464726573732063616e6e6f7420626520300000000000000081525060200191505060405180910390fd5b806000806101000a81548173ffffffffffffffffffffffffffffffffffffffff021916908373ffffffffffffffffffffffffffffffffffffffff1602179055507fb532073b38c83145e3e5135377a08bf9aab55bc0fd7c1179cd4fb995d2a5159c600082604051808373ffffffffffffffffffffffffffffffffffffffff1673ffffffffffffffffffffffffffffffffffffffff1681526020018273ffffffffffffffffffffffffffffffffffffffff1673ffffffffffffffffffffffffffffffffffffffff1681526020019250505060405180910390a15080600260006101000a81548173ffffffffffffffffffffffffffffffffffffffff021916908373ffffffffffffffffffffffffffffffffffffffff1602179055505081600460006101000a81548173ffffffffffffffffffffffffffffffffffffffff021916908373ffffffffffffffffffffffffffffffffffffffff16021790555080600560006101000a81548173ffffffffffffffffffffffffffffffffffffffff021916908373ffffffffffffffffffffffffffffffffffffffff1602179055505050505061481380620002bd6000396000f3fe608060405234801561001057600080fd5b50600436106102bb5760003560e01c8063681c781111610182578063b076f08b116100e9578063d5495e06116100a2578063ef36910f1161007c578063ef36910f14610f3c578063f27aa4fb14610f5a578063f2de2dee14610fa7578063fac0d54114610ff5576102bb565b8063d5495e0614610ea3578063d5bec48814610ed1578063ee0dddd714610efa576102bb565b8063b076f08b14610d7d578063b46b3cb914610d9b578063bad52f5914610dc9578063c6682bc514610de7578063cc76032d14610e1f578063d3864cc414610e61576102bb565b8063826022e21161013b578063826022e214610b48578063899ffef414610c165780638bfc007c14610c755780638da5cb5b14610cb957806394a8b41914610d03578063a7fbcba914610d4f576102bb565b8063681c7811146109b957806369e9a1d914610a065780636eafeb8014610a245780637418536014610af257806379ba509714610afc5780637fe24d5c14610b06576102bb565b80632af64bd31161022657806353a47bb7116101df57806353a47bb7146107b95780635483fe0414610803578063585075e5146108d157806359784ac91461090957806360b3a03314610937578063619c88c714610981576102bb565b80632af64bd3146106b35780633eb76715146106d557806340f68cdd146106f35780634798b320146107375780634e03d640146107415780635082fa3f1461076f576102bb565b80631b9a7239116102785780631b9a7239146104165780631be6b176146104585780631c1b64f9146104b75780631e1c37c01461062f5780632646d3f21461064d5780632a222dfe14610685576102bb565b806302760d94146102c057806304f3bcec146102de57806312250dd61461032857806313cf45841461036057806315712139146103a45780631627540c146103d2575b600080fd5b6102c8611013565b6040518082815260200191505060405180910390f35b6102e6611022565b604051808273ffffffffffffffffffffffffffffffffffffffff1673ffffffffffffffffffffffffffffffffffffffff16815260200191505060405180910390f35b61035e6004803603604081101561033e57600080fd5b810190808035906020019092919080359060200190929190505050611048565b005b6103a26004803603602081101561037657600080fd5b81019080803573ffffffffffffffffffffffffffffffffffffffff1690602001909291905050506110c6565b005b6103d0600480360360208110156103ba57600080fd5b8101908080359060200190929190505050611112565b005b610414600480360360208110156103e857600080fd5b81019080803573ffffffffffffffffffffffffffffffffffffffff16906020019092919050505061118f565b005b6104426004803603602081101561042c57600080fd5b810190808035906020019092919050505061123e565b6040518082815260200191505060405180910390f35b61049a6004803603602081101561046e57600080fd5b81019080803573ffffffffffffffffffffffffffffffffffffffff1690602001909291905050506112da565b604051808381526020018281526020019250505060405180910390f35b61062d600480360360808110156104cd57600080fd5b81019080803590602001906401000000008111156104ea57600080fd5b8201836020820111156104fc57600080fd5b8035906020019184602083028401116401000000008311171561051e57600080fd5b90919293919293908035906020019064010000000081111561053f57600080fd5b82018360208201111561055157600080fd5b8035906020019184602083028401116401000000008311171561057357600080fd5b90919293919293908035906020019064010000000081111561059457600080fd5b8201836020820111156105a657600080fd5b803590602001918460208302840111640100000000831117156105c857600080fd5b9091929391929390803590602001906401000000008111156105e957600080fd5b8201836020820111156105fb57600080fd5b8035906020019184602083028401116401000000008311171561061d57600080fd5b90919293919293905050506113b2565b005b6106376116ea565b6040518082815260200191505060405180910390f35b6106836004803603604081101561066357600080fd5b810190808035906020019092919080359060200190929190505050611779565b005b6106b16004803603602081101561069b57600080fd5b81019080803590602001909291905050506117ff565b005b6106bb61187c565b604051808215151515815260200191505060405180910390f35b6106dd611a54565b6040518082815260200191505060405180910390f35b6107356004803603602081101561070957600080fd5b81019080803573ffffffffffffffffffffffffffffffffffffffff169060200190929190505050611ae3565b005b61073f611b8c565b005b61076d6004803603602081101561075757600080fd5b8101908080359060200190929190505050611c8d565b005b610777611d91565b604051808273ffffffffffffffffffffffffffffffffffffffff1673ffffffffffffffffffffffffffffffffffffffff16815260200191505060405180910390f35b6107c1611dbb565b604051808273ffffffffffffffffffffffffffffffffffffffff1673ffffffffffffffffffffffffffffffffffffffff16815260200191505060405180910390f35b6108cf6004803603604081101561081957600080fd5b810190808035906020019064010000000081111561083657600080fd5b82018360208201111561084857600080fd5b8035906020019184602083028401116401000000008311171561086a57600080fd5b90919293919293908035906020019064010000000081111561088b57600080fd5b82018360208201111561089d57600080fd5b803590602001918460208302840111640100000000831117156108bf57600080fd5b9091929391929390505050611de1565b005b610907600480360360408110156108e757600080fd5b810190808035906020019092919080359060200190929190505050611f65565b005b6109356004803603602081101561091f57600080fd5b8101908080359060200190929190505050611fe3565b005b61093f6120fe565b604051808273ffffffffffffffffffffffffffffffffffffffff1673ffffffffffffffffffffffffffffffffffffffff16815260200191505060405180910390f35b6109b76004803603604081101561099757600080fd5b810190808035906020019092919080359060200190929190505050612128565b005b6109e5600480360360208110156109cf57600080fd5b810190808035906020019092919050505061224c565b60405180838152602001821515151581526020019250505060405180910390f35b610a0e6123d4565b6040518082815260200191505060405180910390f35b610af060048036036040811015610a3a57600080fd5b8101908080359060200190640100000000811115610a5757600080fd5b820183602082011115610a6957600080fd5b80359060200191846020830284011164010000000083111715610a8b57600080fd5b909192939192939080359060200190640100000000811115610aac57600080fd5b820183602082011115610abe57600080fd5b80359060200191846020830284011164010000000083111715610ae057600080fd5b9091929391929390505050612463565b005b610afa6125e7565b005b610b04612850565b005b610b3260048036036020811015610b1c57600080fd5b8101908080359060200190929190505050612a76565b6040518082815260200191505060405180910390f35b610c1460048036036040811015610b5e57600080fd5b8101908080359060200190640100000000811115610b7b57600080fd5b820183602082011115610b8d57600080fd5b80359060200191846020830284011164010000000083111715610baf57600080fd5b909192939192939080359060200190640100000000811115610bd057600080fd5b820183602082011115610be257600080fd5b80359060200191846020830284011164010000000083111715610c0457600080fd5b9091929391929390505050612b12565b005b610c1e612c96565b6040518080602001828103825283818151815260200191508051906020019060200280838360005b83811015610c61578082015181840152602081019050610c46565b505050509050019250505060405180910390f35b610cb760048036036020811015610c8b57600080fd5b81019080803573ffffffffffffffffffffffffffffffffffffffff169060200190929190505050612df0565b005b610cc1612e3c565b604051808273ffffffffffffffffffffffffffffffffffffffff1673ffffffffffffffffffffffffffffffffffffffff16815260200191505060405180910390f35b610d3960048036036040811015610d1957600080fd5b810190808035906020019092919080359060200190929190505050612e61565b6040518082815260200191505060405180910390f35b610d7b60048036036020811015610d6557600080fd5b8101908080359060200190929190505050612f06565b005b610d85612f83565b6040518082815260200191505060405180910390f35b610dc760048036036020811015610db157600080fd5b8101908080359060200190929190505050613012565b005b610dd161308f565b6040518082815260200191505060405180910390f35b610e1d60048036036040811015610dfd57600080fd5b810190808035906020019092919080359060200190929190505050613286565b005b610e4b60048036036020811015610e3557600080fd5b81019080803590602001909291905050506133aa565b6040518082815260200191505060405180910390f35b610e8d60048036036020811015610e7757600080fd5b8101908080359060200190929190505050613446565b6040518082815260200191505060405180910390f35b610ecf60048036036020811015610eb957600080fd5b81019080803590602001909291905050506134e2565b005b610ed96135e6565b60405180838152602001821515151581526020019250505060405180910390f35b610f2660048036036020811015610f1057600080fd5b81019080803590602001909291905050506135f9565b6040518082815260200191505060405180910390f35b610f4461360b565b6040518082815260200191505060405180910390f35b610f8660048036036020811015610f7057600080fd5b810190808035906020019092919050505061369a565b60405180838152602001821515151581526020019250505060405180910390f35b610ff360048036036040811015610fbd57600080fd5b81019080803573ffffffffffffffffffffffffffffffffffffffff169060200190929190803590602001909291905050506137ab565b005b610ffd61385d565b6040518082815260200191505060405180910390f35b600061101d6138ec565b905090565b600260009054906101000a900473ffffffffffffffffffffffffffffffffffffffff1681565b611050613988565b73ffffffffffffffffffffffffffffffffffffffff166312250dd683836040518363ffffffff1660e01b81526004018083815260200182815260200192505050600060405180830381600087803b1580156110aa57600080fd5b505af11580156110be573d6000803e3d6000fd5b505050505050565b6110ce6139b2565b80600460006101000a81548173ffffffffffffffffffffffffffffffffffffffff021916908373ffffffffffffffffffffffffffffffffffffffff16021790555050565b61111a613a59565b611122613988565b73ffffffffffffffffffffffffffffffffffffffff1663517257a8826040518263ffffffff1660e01b815260040180828152602001915050600060405180830381600087803b15801561117457600080fd5b505af1158015611188573d6000803e3d6000fd5b5050505050565b6111976139b2565b80600160006101000a81548173ffffffffffffffffffffffffffffffffffffffff021916908373ffffffffffffffffffffffffffffffffffffffff1602179055507f906a1c6bd7e3091ea86693dd029a831c19049ce77f1dce2ce0bab1cacbabce2281604051808273ffffffffffffffffffffffffffffffffffffffff1673ffffffffffffffffffffffffffffffffffffffff16815260200191505060405180910390a150565b6000611248613988565b73ffffffffffffffffffffffffffffffffffffffff16639f15385b836040518263ffffffff1660e01b81526004018082815260200191505060206040518083038186803b15801561129857600080fd5b505afa1580156112ac573d6000803e3d6000fd5b505050506040513d60208110156112c257600080fd5b81019080805190602001909291905050509050919050565b6000806112e5613988565b73ffffffffffffffffffffffffffffffffffffffff16635d7fb53f846040518263ffffffff1660e01b8152600401808273ffffffffffffffffffffffffffffffffffffffff1673ffffffffffffffffffffffffffffffffffffffff168152602001915050604080518083038186803b15801561136057600080fd5b505afa158015611374573d6000803e3d6000fd5b505050506040513d604081101561138a57600080fd5b8101908080519060200190929190805190602001909291905050508092508193505050915091565b600560009054906101000a900473ffffffffffffffffffffffffffffffffffffffff1673ffffffffffffffffffffffffffffffffffffffff163373ffffffffffffffffffffffffffffffffffffffff1614611458576040517f08c379a000000000000000000000000000000000000000000000000000000000815260040180806020018281038252602d815260200180614712602d913960400191505060405180910390fd5b611460613988565b73ffffffffffffffffffffffffffffffffffffffff1663826022e2898989896040518563ffffffff1660e01b81526004018080602001806020018381038352878782818152602001925060200280828437600081840152601f19601f8201169050808301925050508381038252858582818152602001925060200280828437600081840152601f19601f8201169050808301925050509650505050505050600060405180830381600087803b15801561151857600080fd5b505af115801561152c573d6000803e3d6000fd5b50505050611538613988565b73ffffffffffffffffffffffffffffffffffffffff16636eafeb80898987876040518563ffffffff1660e01b81526004018080602001806020018381038352878782818152602001925060200280828437600081840152601f19601f8201169050808301925050508381038252858582818152602001925060200280828437600081840152601f19601f8201169050808301925050509650505050505050600060405180830381600087803b1580156115f057600080fd5b505af1158015611604573d6000803e3d6000fd5b50505050611610613988565b73ffffffffffffffffffffffffffffffffffffffff16635483fe04898985856040518563ffffffff1660e01b81526004018080602001806020018381038352878782818152602001925060200280828437600081840152601f19601f8201169050808301925050508381038252858582818152602001925060200280828437600081840152601f19601f8201169050808301925050509650505050505050600060405180830381600087803b1580156116c857600080fd5b505af11580156116dc573d6000803e3d6000fd5b505050505050505050505050565b60006116f4613988565b73ffffffffffffffffffffffffffffffffffffffff16631e1c37c06040518163ffffffff1660e01b815260040160206040518083038186803b15801561173957600080fd5b505afa15801561174d573d6000803e3d6000fd5b505050506040513d602081101561176357600080fd5b8101908080519060200190929190505050905090565b6117816139b2565b611789613988565b73ffffffffffffffffffffffffffffffffffffffff16632646d3f283836040518363ffffffff1660e01b81526004018083815260200182815260200192505050600060405180830381600087803b1580156117e357600080fd5b505af11580156117f7573d6000803e3d6000fd5b505050505050565b611807613a59565b61180f613988565b73ffffffffffffffffffffffffffffffffffffffff1663ceb83c6f826040518263ffffffff1660e01b815260040180828152602001915050600060405180830381600087803b15801561186157600080fd5b505af1158015611875573d6000803e3d6000fd5b5050505050565b60006060611888612c96565b905060008090505b8151811015611a4a5760008282815181106118a757fe5b602002602001015190506003600082815260200190815260200160002060009054906101000a900473ffffffffffffffffffffffffffffffffffffffff1673ffffffffffffffffffffffffffffffffffffffff16600260009054906101000a900473ffffffffffffffffffffffffffffffffffffffff1673ffffffffffffffffffffffffffffffffffffffff166321f8a721836040518263ffffffff1660e01b81526004018082815260200191505060206040518083038186803b15801561196e57600080fd5b505afa158015611982573d6000803e3d6000fd5b505050506040513d602081101561199857600080fd5b810190808051906020019092919050505073ffffffffffffffffffffffffffffffffffffffff16141580611a2b5750600073ffffffffffffffffffffffffffffffffffffffff166003600083815260200190815260200160002060009054906101000a900473ffffffffffffffffffffffffffffffffffffffff1673ffffffffffffffffffffffffffffffffffffffff16145b15611a3c5760009350505050611a51565b508080600101915050611890565b5060019150505b90565b6000611a5e613988565b73ffffffffffffffffffffffffffffffffffffffff16633eb767156040518163ffffffff1660e01b815260040160206040518083038186803b158015611aa357600080fd5b505afa158015611ab7573d6000803e3d6000fd5b505050506040513d6020811015611acd57600080fd5b8101908080519060200190929190505050905090565b611aeb613a59565b611af3613988565b73ffffffffffffffffffffffffffffffffffffffff16633227918f826040518263ffffffff1660e01b8152600401808273ffffffffffffffffffffffffffffffffffffffff1673ffffffffffffffffffffffffffffffffffffffff168152602001915050600060405180830381600087803b158015611b7157600080fd5b505af1158015611b85573d6000803e3d6000fd5b5050505050565b6000611b96613b2f565b73ffffffffffffffffffffffffffffffffffffffff1663053932626040518163ffffffff1660e01b815260040160206040518083038186803b158015611bdb57600080fd5b505afa158015611bef573d6000803e3d6000fd5b505050506040513d6020811015611c0557600080fd5b81019080805190602001909291905050509050611c20613988565b73ffffffffffffffffffffffffffffffffffffffff16636bc60d04826040518263ffffffff1660e01b815260040180828152602001915050600060405180830381600087803b158015611c7257600080fd5b505af1158015611c86573d6000803e3d6000fd5b5050505050565b611c95613988565b73ffffffffffffffffffffffffffffffffffffffff1663585075e5611cb8613988565b73ffffffffffffffffffffffffffffffffffffffff1663564b81ef6040518163ffffffff1660e01b815260040160206040518083038186803b158015611cfd57600080fd5b505afa158015611d11573d6000803e3d6000fd5b505050506040513d6020811015611d2757600080fd5b8101908080519060200190929190505050836040518363ffffffff1660e01b81526004018083815260200182815260200192505050600060405180830381600087803b158015611d7657600080fd5b505af1158015611d8a573d6000803e3d6000fd5b5050505050565b6000600460009054906101000a900473ffffffffffffffffffffffffffffffffffffffff16905090565b600160009054906101000a900473ffffffffffffffffffffffffffffffffffffffff1681565b600560009054906101000a900473ffffffffffffffffffffffffffffffffffffffff1673ffffffffffffffffffffffffffffffffffffffff163373ffffffffffffffffffffffffffffffffffffffff1614611e87576040517f08c379a000000000000000000000000000000000000000000000000000000000815260040180806020018281038252602d815260200180614712602d913960400191505060405180910390fd5b611e8f613988565b73ffffffffffffffffffffffffffffffffffffffff16635483fe04858585856040518563ffffffff1660e01b81526004018080602001806020018381038352878782818152602001925060200280828437600081840152601f19601f8201169050808301925050508381038252858582818152602001925060200280828437600081840152601f19601f8201169050808301925050509650505050505050600060405180830381600087803b158015611f4757600080fd5b505af1158015611f5b573d6000803e3d6000fd5b5050505050505050565b611f6d613988565b73ffffffffffffffffffffffffffffffffffffffff1663585075e583836040518363ffffffff1660e01b81526004018083815260200182815260200192505050600060405180830381600087803b158015611fc757600080fd5b505af1158015611fdb573d6000803e3d6000fd5b505050505050565b600560009054906101000a900473ffffffffffffffffffffffffffffffffffffffff1673ffffffffffffffffffffffffffffffffffffffff163373ffffffffffffffffffffffffffffffffffffffff1614612089576040517f08c379a000000000000000000000000000000000000000000000000000000000815260040180806020018281038252602d815260200180614712602d913960400191505060405180910390fd5b612091613988565b73ffffffffffffffffffffffffffffffffffffffff16634374d398826040518263ffffffff1660e01b815260040180828152602001915050600060405180830381600087803b1580156120e357600080fd5b505af11580156120f7573d6000803e3d6000fd5b5050505050565b6000600560009054906101000a900473ffffffffffffffffffffffffffffffffffffffff16905090565b600560009054906101000a900473ffffffffffffffffffffffffffffffffffffffff1673ffffffffffffffffffffffffffffffffffffffff163373ffffffffffffffffffffffffffffffffffffffff16146121ce576040517f08c379a000000000000000000000000000000000000000000000000000000000815260040180806020018281038252602d815260200180614712602d913960400191505060405180910390fd5b6121d6613988565b73ffffffffffffffffffffffffffffffffffffffff1663619c88c783836040518363ffffffff1660e01b81526004018083815260200182815260200192505050600060405180830381600087803b15801561223057600080fd5b505af1158015612244573d6000803e3d6000fd5b505050505050565b600080600090503073ffffffffffffffffffffffffffffffffffffffff1663bad52f596040518163ffffffff1660e01b815260040160206040518083038186803b15801561229957600080fd5b505afa1580156122ad573d6000803e3d6000fd5b505050506040513d60208110156122c357600080fd5b810190808051906020019092919050505091507f7055534400000000000000000000000000000000000000000000000000000000831415612309578181915091506123cf565b600080612314613b5f565b73ffffffffffffffffffffffffffffffffffffffff16630c71cd23866040518263ffffffff1660e01b815260040180828152602001915050604080518083038186803b15801561236357600080fd5b505afa158015612377573d6000803e3d6000fd5b505050506040513d604081101561238d57600080fd5b810190808051906020019092919080519060200190929190505050915091506123bf8285613b8f90919063ffffffff16565b83806123c85750815b9350935050505b915091565b60006123de613988565b73ffffffffffffffffffffffffffffffffffffffff16633c9889066040518163ffffffff1660e01b815260040160206040518083038186803b15801561242357600080fd5b505afa158015612437573d6000803e3d6000fd5b505050506040513d602081101561244d57600080fd5b8101908080519060200190929190505050905090565b600560009054906101000a900473ffffffffffffffffffffffffffffffffffffffff1673ffffffffffffffffffffffffffffffffffffffff163373ffffffffffffffffffffffffffffffffffffffff1614612509576040517f08c379a000000000000000000000000000000000000000000000000000000000815260040180806020018281038252602d815260200180614712602d913960400191505060405180910390fd5b612511613988565b73ffffffffffffffffffffffffffffffffffffffff16636eafeb80858585856040518563ffffffff1660e01b81526004018080602001806020018381038352878782818152602001925060200280828437600081840152601f19601f8201169050808301925050508381038252858582818152602001925060200280828437600081840152601f19601f8201169050808301925050509650505050505050600060405180830381600087803b1580156125c957600080fd5b505af11580156125dd573d6000803e3d6000fd5b5050505050505050565b60606125f1612c96565b905060008090505b815181101561284c57600082828151811061261057fe5b602002602001015190506000600260009054906101000a900473ffffffffffffffffffffffffffffffffffffffff1673ffffffffffffffffffffffffffffffffffffffff1663dacb2d01838460405160200180807f5265736f6c766572206d697373696e67207461726765743a20000000000000008152506019018281526020019150506040516020818303038152906040526040518363ffffffff1660e01b81526004018083815260200180602001828103825283818151815260200191508051906020019080838360005b838110156126f85780820151818401526020810190506126dd565b50505050905090810190601f1680156127255780820380516001836020036101000a031916815260200191505b50935050505060206040518083038186803b15801561274357600080fd5b505afa158015612757573d6000803e3d6000fd5b505050506040513d602081101561276d57600080fd5b81019080805190602001909291905050509050806003600084815260200190815260200160002060006101000a81548173ffffffffffffffffffffffffffffffffffffffff021916908373ffffffffffffffffffffffffffffffffffffffff1602179055507f88a93678a3692f6789d9546fc621bf7234b101ddb7d4fe479455112831b8aa688282604051808381526020018273ffffffffffffffffffffffffffffffffffffffff1673ffffffffffffffffffffffffffffffffffffffff1681526020019250505060405180910390a1505080806001019150506125f9565b5050565b600160009054906101000a900473ffffffffffffffffffffffffffffffffffffffff1673ffffffffffffffffffffffffffffffffffffffff163373ffffffffffffffffffffffffffffffffffffffff16146128f6576040517f08c379a00000000000000000000000000000000000000000000000000000000081526004018080602001828103825260358152602001806146b76035913960400191505060405180910390fd5b7fb532073b38c83145e3e5135377a08bf9aab55bc0fd7c1179cd4fb995d2a5159c6000809054906101000a900473ffffffffffffffffffffffffffffffffffffffff16600160009054906101000a900473ffffffffffffffffffffffffffffffffffffffff16604051808373ffffffffffffffffffffffffffffffffffffffff1673ffffffffffffffffffffffffffffffffffffffff1681526020018273ffffffffffffffffffffffffffffffffffffffff1673ffffffffffffffffffffffffffffffffffffffff1681526020019250505060405180910390a1600160009054906101000a900473ffffffffffffffffffffffffffffffffffffffff166000806101000a81548173ffffffffffffffffffffffffffffffffffffffff021916908373ffffffffffffffffffffffffffffffffffffffff1602179055506000600160006101000a81548173ffffffffffffffffffffffffffffffffffffffff021916908373ffffffffffffffffffffffffffffffffffffffff160217905550565b6000612a80613988565b73ffffffffffffffffffffffffffffffffffffffff16637fe24d5c836040518263ffffffff1660e01b81526004018082815260200191505060206040518083038186803b158015612ad057600080fd5b505afa158015612ae4573d6000803e3d6000fd5b505050506040513d6020811015612afa57600080fd5b81019080805190602001909291905050509050919050565b600560009054906101000a900473ffffffffffffffffffffffffffffffffffffffff1673ffffffffffffffffffffffffffffffffffffffff163373ffffffffffffffffffffffffffffffffffffffff1614612bb8576040517f08c379a000000000000000000000000000000000000000000000000000000000815260040180806020018281038252602d815260200180614712602d913960400191505060405180910390fd5b612bc0613988565b73ffffffffffffffffffffffffffffffffffffffff1663826022e2858585856040518563ffffffff1660e01b81526004018080602001806020018381038352878782818152602001925060200280828437600081840152601f19601f8201169050808301925050508381038252858582818152602001925060200280828437600081840152601f19601f8201169050808301925050509650505050505050600060405180830381600087803b158015612c7857600080fd5b505af1158015612c8c573d6000803e3d6000fd5b5050505050505050565b60606005604051908082528060200260200182016040528015612cc85781602001602082028038833980820191505090505b5090507f497373756572000000000000000000000000000000000000000000000000000081600081518110612cf957fe5b6020026020010181815250507f45786368616e676572000000000000000000000000000000000000000000000081600181518110612d3357fe5b6020026020010181815250507f427269646765537461746570555344000000000000000000000000000000000081600281518110612d6d57fe5b6020026020010181815250507f45786368616e676552617465730000000000000000000000000000000000000081600381518110612da757fe5b6020026020010181815250507f446562744361636865000000000000000000000000000000000000000000000081600481518110612de157fe5b60200260200101818152505090565b612df86139b2565b80600560006101000a81548173ffffffffffffffffffffffffffffffffffffffff021916908373ffffffffffffffffffffffffffffffffffffffff16021790555050565b6000809054906101000a900473ffffffffffffffffffffffffffffffffffffffff1681565b6000612e6b613bab565b73ffffffffffffffffffffffffffffffffffffffff166394a8b41984846040518363ffffffff1660e01b8152600401808381526020018281526020019250505060206040518083038186803b158015612ec357600080fd5b505afa158015612ed7573d6000803e3d6000fd5b505050506040513d6020811015612eed57600080fd5b8101908080519060200190929190505050905092915050565b612f0e6139b2565b612f16613988565b73ffffffffffffffffffffffffffffffffffffffff1663a7fbcba9826040518263ffffffff1660e01b815260040180828152602001915050600060405180830381600087803b158015612f6857600080fd5b505af1158015612f7c573d6000803e3d6000fd5b5050505050565b6000612f8d613988565b73ffffffffffffffffffffffffffffffffffffffff1663b076f08b6040518163ffffffff1660e01b815260040160206040518083038186803b158015612fd257600080fd5b505afa158015612fe6573d6000803e3d6000fd5b505050506040513d6020811015612ffc57600080fd5b8101908080519060200190929190505050905090565b61301a6139b2565b613022613988565b73ffffffffffffffffffffffffffffffffffffffff1663b46b3cb9826040518263ffffffff1660e01b815260040180828152602001915050600060405180830381600087803b15801561307457600080fd5b505af1158015613088573d6000803e3d6000fd5b5050505050565b60008061309a613988565b73ffffffffffffffffffffffffffffffffffffffff1663b076f08b6040518163ffffffff1660e01b815260040160206040518083038186803b1580156130df57600080fd5b505afa1580156130f3573d6000803e3d6000fd5b505050506040513d602081101561310957600080fd5b810190808051906020019092919050505090506000613126613988565b73ffffffffffffffffffffffffffffffffffffffff16637f5535136040518163ffffffff1660e01b815260040160206040518083038186803b15801561316b57600080fd5b505afa15801561317f573d6000803e3d6000fd5b505050506040513d602081101561319557600080fd5b8101908080519060200190929190505050905060008114156131bc57600092505050613283565b60006131c6613bdb565b5090506000816131d4613988565b73ffffffffffffffffffffffffffffffffffffffff1663fac0d5416040518163ffffffff1660e01b815260040160206040518083038186803b15801561321957600080fd5b505afa15801561322d573d6000803e3d6000fd5b505050506040513d602081101561324357600080fd5b810190808051906020019092919050505001905061327c8361326e868461409590919063ffffffff16565b613b8f90919063ffffffff16565b9450505050505b90565b600560009054906101000a900473ffffffffffffffffffffffffffffffffffffffff1673ffffffffffffffffffffffffffffffffffffffff163373ffffffffffffffffffffffffffffffffffffffff161461332c576040517f08c379a000000000000000000000000000000000000000000000000000000000815260040180806020018281038252602d815260200180614712602d913960400191505060405180910390fd5b613334613988565b73ffffffffffffffffffffffffffffffffffffffff1663c6682bc583836040518363ffffffff1660e01b81526004018083815260200182815260200192505050600060405180830381600087803b15801561338e57600080fd5b505af11580156133a2573d6000803e3d6000fd5b505050505050565b60006133b4613988565b73ffffffffffffffffffffffffffffffffffffffff1663cc76032d836040518263ffffffff1660e01b81526004018082815260200191505060206040518083038186803b15801561340457600080fd5b505afa158015613418573d6000803e3d6000fd5b505050506040513d602081101561342e57600080fd5b81019080805190602001909291905050509050919050565b6000613450613988565b73ffffffffffffffffffffffffffffffffffffffff1663d3864cc4836040518263ffffffff1660e01b81526004018082815260200191505060206040518083038186803b1580156134a057600080fd5b505afa1580156134b4573d6000803e3d6000fd5b505050506040513d60208110156134ca57600080fd5b81019080805190602001909291905050509050919050565b6134ea613988565b73ffffffffffffffffffffffffffffffffffffffff166312250dd661350d613988565b73ffffffffffffffffffffffffffffffffffffffff1663564b81ef6040518163ffffffff1660e01b815260040160206040518083038186803b15801561355257600080fd5b505afa158015613566573d6000803e3d6000fd5b505050506040513d602081101561357c57600080fd5b8101908080519060200190929190505050836040518363ffffffff1660e01b81526004018083815260200182815260200192505050600060405180830381600087803b1580156135cb57600080fd5b505af11580156135df573d6000803e3d6000fd5b5050505050565b6000806135f1613bdb565b915091509091565b6000613604826140c2565b9050919050565b6000613615613988565b73ffffffffffffffffffffffffffffffffffffffff16632a3d64c06040518163ffffffff1660e01b815260040160206040518083038186803b15801561365a57600080fd5b505afa15801561366e573d6000803e3d6000fd5b505050506040513d602081101561368457600080fd5b8101908080519060200190929190505050905090565b6000806136a5613bdb565b80925081935050507f70555344000000000000000000000000000000000000000000000000000000008314156136e0578181915091506137a6565b6000806136eb613b5f565b73ffffffffffffffffffffffffffffffffffffffff16630c71cd23866040518263ffffffff1660e01b815260040180828152602001915050604080518083038186803b15801561373a57600080fd5b505afa15801561374e573d6000803e3d6000fd5b505050506040513d604081101561376457600080fd5b810190808051906020019092919080519060200190929190505050915091506137968285613b8f90919063ffffffff16565b838061379f5750815b9350935050505b915091565b6137b3613a59565b6137bb613988565b73ffffffffffffffffffffffffffffffffffffffff16633d43eee583836040518363ffffffff1660e01b8152600401808373ffffffffffffffffffffffffffffffffffffffff1673ffffffffffffffffffffffffffffffffffffffff16815260200182815260200192505050600060405180830381600087803b15801561384157600080fd5b505af1158015613855573d6000803e3d6000fd5b505050505050565b6000613867613988565b73ffffffffffffffffffffffffffffffffffffffff1663fac0d5416040518163ffffffff1660e01b815260040160206040518083038186803b1580156138ac57600080fd5b505afa1580156138c0573d6000803e3d6000fd5b505050506040513d60208110156138d657600080fd5b8101908080519060200190929190505050905090565b6000806138f7613988565b73ffffffffffffffffffffffffffffffffffffffff16632a3d64c06040518163ffffffff1660e01b815260040160206040518083038186803b15801561393c57600080fd5b505afa158015613950573d6000803e3d6000fd5b505050506040513d602081101561396657600080fd5b810190808051906020019092919050505090506139828161416b565b91505090565b6000600460009054906101000a900473ffffffffffffffffffffffffffffffffffffffff16905090565b6000809054906101000a900473ffffffffffffffffffffffffffffffffffffffff1673ffffffffffffffffffffffffffffffffffffffff163373ffffffffffffffffffffffffffffffffffffffff1614613a57576040517f08c379a000000000000000000000000000000000000000000000000000000000815260040180806020018281038252602f81526020018061473f602f913960400191505060405180910390fd5b565b6000613a63614231565b73ffffffffffffffffffffffffffffffffffffffff163373ffffffffffffffffffffffffffffffffffffffff161490506000613a9d614261565b73ffffffffffffffffffffffffffffffffffffffff163373ffffffffffffffffffffffffffffffffffffffff161490508180613ad65750805b613b2b576040517f08c379a000000000000000000000000000000000000000000000000000000000815260040180806020018281038252605081526020018061478f6050913960600191505060405180910390fd5b5050565b6000613b5a7f4465627443616368650000000000000000000000000000000000000000000000614291565b905090565b6000613b8a7f45786368616e6765526174657300000000000000000000000000000000000000614291565b905090565b6000613ba38383601260ff16600a0a6143f3565b905092915050565b6000613bd67f4272696467655374617465705553440000000000000000000000000000000000614291565b905090565b600080613be6614231565b73ffffffffffffffffffffffffffffffffffffffff1663f023e8db7f705553440000000000000000000000000000000000000000000000000000000060016040518363ffffffff1660e01b8152600401808381526020018215151515815260200192505050604080518083038186803b158015613c6257600080fd5b505afa158015613c76573d6000803e3d6000fd5b505050506040513d6040811015613c8c57600080fd5b81019080805190602001909291908051906020019092919050505080925081935050506000613cb9613bab565b73ffffffffffffffffffffffffffffffffffffffff1663663c2dae6040518163ffffffff1660e01b815260040160206040518083038186803b158015613cfe57600080fd5b505afa158015613d12573d6000803e3d6000fd5b505050506040513d6020811015613d2857600080fd5b810190808051906020019092919050505090506000613d45613bab565b73ffffffffffffffffffffffffffffffffffffffff1663fc9ff1216040518163ffffffff1660e01b815260040160206040518083038186803b158015613d8a57600080fd5b505afa158015613d9e573d6000803e3d6000fd5b505050506040513d6020811015613db457600080fd5b8101908080519060200190929190505050905060008090506060613dd6613988565b73ffffffffffffffffffffffffffffffffffffffff16630cbc31416040518163ffffffff1660e01b815260040160006040518083038186803b158015613e1b57600080fd5b505afa158015613e2f573d6000803e3d6000fd5b505050506040513d6000823e3d601f19601f820116820180604052506020811015613e5957600080fd5b8101908080516040519392919084640100000000821115613e7957600080fd5b83820191506020820185811115613e8f57600080fd5b8251866020820283011164010000000082111715613eac57600080fd5b8083526020830192505050908051906020019060200280838360005b83811015613ee3578082015181840152602081019050613ec8565b50505050905001604052505050905060008090505b81518160ff161015613fce57613fbf613f0f613988565b73ffffffffffffffffffffffffffffffffffffffff16634e53bb6d848460ff1681518110613f3957fe5b60200260200101516040518263ffffffff1660e01b81526004018082815260200191505060206040518083038186803b158015613f7557600080fd5b505afa158015613f89573d6000803e3d6000fd5b505050506040513d6020811015613f9f57600080fd5b81019080805190602001909291905050508461444e90919063ffffffff16565b92508080600101915050613ef8565b506000841115613fee57613feb848761444e90919063ffffffff16565b95505b600083111561400d5761400a83876144d690919063ffffffff16565b95505b82821015614066576040517f08c379a00000000000000000000000000000000000000000000000000000000081526004018080602001828103825260268152602001806146ec6026913960400191505060405180910390fd5b61408b61407c84846144d690919063ffffffff16565b876144d690919063ffffffff16565b9550505050509091565b6000601260ff16600a0a6140b2838561455f90919063ffffffff16565b816140b957fe5b04905092915050565b6000806140cd613988565b73ffffffffffffffffffffffffffffffffffffffff16639f15385b846040518263ffffffff1660e01b81526004018082815260200191505060206040518083038186803b15801561411d57600080fd5b505afa158015614131573d6000803e3d6000fd5b505050506040513d602081101561414757600080fd5b810190808051906020019092919050505090506141638161416b565b915050919050565b600080614176613bdb565b509050600083146141a9576141a461418d846145e5565b614196836145e5565b61460b90919063ffffffff16565b614229565b73__$b8d33eeb36ac0d1e81cd70156e0043e778$__63d5e5e6e66040518163ffffffff1660e01b815260040160206040518083038186803b1580156141ed57600080fd5b505af4158015614201573d6000803e3d6000fd5b505050506040513d602081101561421757600080fd5b81019080805190602001909291905050505b915050919050565b600061425c7f4973737565720000000000000000000000000000000000000000000000000000614291565b905090565b600061428c7f45786368616e6765720000000000000000000000000000000000000000000000614291565b905090565b6000806003600084815260200190815260200160002060009054906101000a900473ffffffffffffffffffffffffffffffffffffffff169050600073ffffffffffffffffffffffffffffffffffffffff168173ffffffffffffffffffffffffffffffffffffffff1614158360405160200180807f4d697373696e6720616464726573733a20000000000000000000000000000000815250601101828152602001915050604051602081830303815290604052906143e9576040517f08c379a00000000000000000000000000000000000000000000000000000000081526004018080602001828103825283818151815260200191508051906020019080838360005b838110156143ae578082015181840152602081019050614393565b50505050905090810190601f1680156143db5780820380516001836020036101000a031916815260200191505b509250505060405180910390fd5b5080915050919050565b60008061441e84614410600a86028861455f90919063ffffffff16565b61462790919063ffffffff16565b90506005600a828161442c57fe5b061061443957600a810190505b600a818161444357fe5b049150509392505050565b6000808284019050838110156144cc576040517f08c379a000000000000000000000000000000000000000000000000000000000815260040180806020018281038252601b8152602001807f536166654d6174683a206164646974696f6e206f766572666c6f77000000000081525060200191505060405180910390fd5b8091505092915050565b60008282111561454e576040517f08c379a000000000000000000000000000000000000000000000000000000000815260040180806020018281038252601e8152602001807f536166654d6174683a207375627472616374696f6e206f766572666c6f77000081525060200191505060405180910390fd5b600082840390508091505092915050565b60008083141561457257600090506145df565b600082840290508284828161458357fe5b04146145da576040517f08c379a000000000000000000000000000000000000000000000000000000000815260040180806020018281038252602181526020018061476e6021913960400191505060405180910390fd5b809150505b92915050565b60006146046012601b0360ff16600a0a8361455f90919063ffffffff16565b9050919050565b600061461f8383601b60ff16600a0a6143f3565b905092915050565b600080821161469e576040517f08c379a000000000000000000000000000000000000000000000000000000000815260040180806020018281038252601a8152602001807f536166654d6174683a206469766973696f6e206279207a65726f00000000000081525060200191505060405180910390fd5b60008284816146a957fe5b049050809150509291505056fe596f75206d757374206265206e6f6d696e61746564206265666f726520796f752063616e20616363657074206f776e657273686970696e626f756e64206d757374206c6172676572207468616e20696e626f756e64416d6f756e744f6e6c79207468652064656274206d616e61676572206d617920706572666f726d207468697320616374696f6e4f6e6c792074686520636f6e7472616374206f776e6572206d617920706572666f726d207468697320616374696f6e536166654d6174683a206d756c7469706c69636174696f6e206f766572666c6f7743726f7373436861696e4d616e616765723a204f6e6c792074686520697373756572206f722065786368616e67657220636f6e74726163742063616e20706572666f726d207468697320616374696f6ea265627a7a72315820c62ca7973bd2b7d8f435f91b6cdfb131b0f6b963ef4b0f4f3c759af1b8e83c8664736f6c63430005100032",
  "linkReferences": {
    "contracts/SafeDecimalMath.sol": {
      "SafeDecimalMath": [
        {
          "length": 20,
          "start": 17512
        }
      ]
    }
  },
  "deployedLinkReferences": {
    "contracts/SafeDecimalMath.sol": {
      "SafeDecimalMath": [
        {
          "length": 20,
          "start": 16811
        }
      ]
    }
  }
}