{
  "_format": "hh-sol-artifact-1",
  "contractName": "PeriFinance",
  "sourceName": "contracts/PeriFinance.sol",
  "abi": [
    {
      "inputs": [
        {
          "internalType": "address payable",
          "name": "_proxy",
          "type": "address"
        },
        {
          "internalType": "contract TokenState",
          "name": "_tokenState",
          "type": "address"
        },
        {
          "internalType": "address",
          "name": "_owner",
          "type": "address"
        },
        {
          "internalType": "uint256",
          "name": "_totalSupply",
          "type": "uint256"
        },
        {
          "internalType": "address",
          "name": "_resolver",
          "type": "address"
        },
        {
          "internalType": "address",
          "name": "_minterRole",
          "type": "address"
        },
        {
          "internalType": "address",
          "name": "_blacklistManager",
          "type": "address"
        },
        {
          "internalType": "address payable",
          "name": "_bridgeValidator",
          "type": "address"
        }
      ],
      "payable": false,
      "stateMutability": "nonpayable",
      "type": "constructor"
    },
    {
      "anonymous": false,
      "inputs": [
        {
          "indexed": true,
          "internalType": "address",
          "name": "account",
          "type": "address"
        },
        {
          "indexed": false,
          "internalType": "uint256",
          "name": "periRedeemed",
          "type": "uint256"
        },
        {
          "indexed": false,
          "internalType": "uint256",
          "name": "amountLiquidated",
          "type": "uint256"
        },
        {
          "indexed": false,
          "internalType": "address",
          "name": "liquidator",
          "type": "address"
        }
      ],
      "name": "AccountLiquidated",
      "type": "event"
    },
    {
      "anonymous": false,
      "inputs": [
        {
          "indexed": true,
          "internalType": "address",
          "name": "owner",
          "type": "address"
        },
        {
          "indexed": true,
          "internalType": "address",
          "name": "spender",
          "type": "address"
        },
        {
          "indexed": false,
          "internalType": "uint256",
          "name": "value",
          "type": "uint256"
        }
      ],
      "name": "Approval",
      "type": "event"
    },
    {
      "anonymous": false,
      "inputs": [
        {
          "indexed": false,
          "internalType": "bytes32",
          "name": "name",
          "type": "bytes32"
        },
        {
          "indexed": false,
          "internalType": "address",
          "name": "destination",
          "type": "address"
        }
      ],
      "name": "CacheUpdated",
      "type": "event"
    },
    {
      "anonymous": false,
      "inputs": [
        {
          "indexed": true,
          "internalType": "address",
          "name": "account",
          "type": "address"
        },
        {
          "indexed": false,
          "internalType": "bytes32",
          "name": "currencyKey",
          "type": "bytes32"
        },
        {
          "indexed": false,
          "internalType": "uint256",
          "name": "amount",
          "type": "uint256"
        }
      ],
      "name": "ExchangeRebate",
      "type": "event"
    },
    {
      "anonymous": false,
      "inputs": [
        {
          "indexed": true,
          "internalType": "address",
          "name": "account",
          "type": "address"
        },
        {
          "indexed": false,
          "internalType": "bytes32",
          "name": "currencyKey",
          "type": "bytes32"
        },
        {
          "indexed": false,
          "internalType": "uint256",
          "name": "amount",
          "type": "uint256"
        }
      ],
      "name": "ExchangeReclaim",
      "type": "event"
    },
    {
      "anonymous": false,
      "inputs": [
        {
          "indexed": true,
          "internalType": "bytes32",
          "name": "trackingCode",
          "type": "bytes32"
        },
        {
          "indexed": false,
          "internalType": "bytes32",
          "name": "toCurrencyKey",
          "type": "bytes32"
        },
        {
          "indexed": false,
          "internalType": "uint256",
          "name": "toAmount",
          "type": "uint256"
        }
      ],
      "name": "ExchangeTracking",
      "type": "event"
    },
    {
      "anonymous": false,
      "inputs": [
        {
          "indexed": false,
          "internalType": "address",
          "name": "oldOwner",
          "type": "address"
        },
        {
          "indexed": false,
          "internalType": "address",
          "name": "newOwner",
          "type": "address"
        }
      ],
      "name": "OwnerChanged",
      "type": "event"
    },
    {
      "anonymous": false,
      "inputs": [
        {
          "indexed": false,
          "internalType": "address",
          "name": "newOwner",
          "type": "address"
        }
      ],
      "name": "OwnerNominated",
      "type": "event"
    },
    {
      "anonymous": false,
      "inputs": [
        {
          "indexed": false,
          "internalType": "address",
          "name": "proxyAddress",
          "type": "address"
        }
      ],
      "name": "ProxyUpdated",
      "type": "event"
    },
    {
      "anonymous": false,
      "inputs": [
        {
          "indexed": true,
          "internalType": "address",
          "name": "account",
          "type": "address"
        },
        {
          "indexed": false,
          "internalType": "bytes32",
          "name": "fromCurrencyKey",
          "type": "bytes32"
        },
        {
          "indexed": false,
          "internalType": "uint256",
          "name": "fromAmount",
          "type": "uint256"
        },
        {
          "indexed": false,
          "internalType": "bytes32",
          "name": "toCurrencyKey",
          "type": "bytes32"
        },
        {
          "indexed": false,
          "internalType": "uint256",
          "name": "toAmount",
          "type": "uint256"
        },
        {
          "indexed": false,
          "internalType": "address",
          "name": "toAddress",
          "type": "address"
        }
      ],
      "name": "PynthExchange",
      "type": "event"
    },
    {
      "anonymous": false,
      "inputs": [
        {
          "indexed": false,
          "internalType": "address",
          "name": "newTokenState",
          "type": "address"
        }
      ],
      "name": "TokenStateUpdated",
      "type": "event"
    },
    {
      "anonymous": false,
      "inputs": [
        {
          "indexed": true,
          "internalType": "address",
          "name": "from",
          "type": "address"
        },
        {
          "indexed": true,
          "internalType": "address",
          "name": "to",
          "type": "address"
        },
        {
          "indexed": false,
          "internalType": "uint256",
          "name": "value",
          "type": "uint256"
        }
      ],
      "name": "Transfer",
      "type": "event"
    },
    {
      "constant": true,
      "inputs": [],
      "name": "DECIMALS",
      "outputs": [
        {
          "internalType": "uint8",
          "name": "",
          "type": "uint8"
        }
      ],
      "payable": false,
      "stateMutability": "view",
      "type": "function"
    },
    {
      "constant": true,
      "inputs": [],
      "name": "TOKEN_NAME",
      "outputs": [
        {
          "internalType": "string",
          "name": "",
          "type": "string"
        }
      ],
      "payable": false,
      "stateMutability": "view",
      "type": "function"
    },
    {
      "constant": true,
      "inputs": [],
      "name": "TOKEN_SYMBOL",
      "outputs": [
        {
          "internalType": "string",
          "name": "",
          "type": "string"
        }
      ],
      "payable": false,
      "stateMutability": "view",
      "type": "function"
    },
    {
      "constant": false,
      "inputs": [],
      "name": "acceptOwnership",
      "outputs": [],
      "payable": false,
      "stateMutability": "nonpayable",
      "type": "function"
    },
    {
      "constant": true,
      "inputs": [
        {
          "internalType": "address",
          "name": "owner",
          "type": "address"
        },
        {
          "internalType": "address",
          "name": "spender",
          "type": "address"
        }
      ],
      "name": "allowance",
      "outputs": [
        {
          "internalType": "uint256",
          "name": "",
          "type": "uint256"
        }
      ],
      "payable": false,
      "stateMutability": "view",
      "type": "function"
    },
    {
      "constant": true,
      "inputs": [
        {
          "internalType": "address",
          "name": "account",
          "type": "address"
        }
      ],
      "name": "amountsToFitClaimable",
      "outputs": [
        {
          "internalType": "uint256",
          "name": "burnAmount",
          "type": "uint256"
        },
        {
          "internalType": "uint256",
          "name": "exTokenAmountToUnstake",
          "type": "uint256"
        }
      ],
      "payable": false,
      "stateMutability": "view",
      "type": "function"
    },
    {
      "constant": true,
      "inputs": [],
      "name": "anyPynthOrPERIRateIsInvalid",
      "outputs": [
        {
          "internalType": "bool",
          "name": "anyRateInvalid",
          "type": "bool"
        }
      ],
      "payable": false,
      "stateMutability": "view",
      "type": "function"
    },
    {
      "constant": false,
      "inputs": [
        {
          "internalType": "address",
          "name": "spender",
          "type": "address"
        },
        {
          "internalType": "uint256",
          "name": "value",
          "type": "uint256"
        }
      ],
      "name": "approve",
      "outputs": [
        {
          "internalType": "bool",
          "name": "",
          "type": "bool"
        }
      ],
      "payable": false,
      "stateMutability": "nonpayable",
      "type": "function"
    },
    {
      "constant": true,
      "inputs": [],
      "name": "availableCurrencyKeys",
      "outputs": [
        {
          "internalType": "bytes32[]",
          "name": "",
          "type": "bytes32[]"
        }
      ],
      "payable": false,
      "stateMutability": "view",
      "type": "function"
    },
    {
      "constant": true,
      "inputs": [],
      "name": "availablePynthCount",
      "outputs": [
        {
          "internalType": "uint256",
          "name": "",
          "type": "uint256"
        }
      ],
      "payable": false,
      "stateMutability": "view",
      "type": "function"
    },
    {
      "constant": true,
      "inputs": [
        {
          "internalType": "uint256",
          "name": "index",
          "type": "uint256"
        }
      ],
      "name": "availablePynths",
      "outputs": [
        {
          "internalType": "contract IPynth",
          "name": "",
          "type": "address"
        }
      ],
      "payable": false,
      "stateMutability": "view",
      "type": "function"
    },
    {
      "constant": true,
      "inputs": [
        {
          "internalType": "address",
          "name": "account",
          "type": "address"
        }
      ],
      "name": "balanceOf",
      "outputs": [
        {
          "internalType": "uint256",
          "name": "",
          "type": "uint256"
        }
      ],
      "payable": false,
      "stateMutability": "view",
      "type": "function"
    },
    {
      "constant": true,
      "inputs": [],
      "name": "blacklistManager",
      "outputs": [
        {
          "internalType": "contract IBlacklistManager",
          "name": "",
          "type": "address"
        }
      ],
      "payable": false,
      "stateMutability": "view",
      "type": "function"
    },
    {
      "constant": true,
      "inputs": [],
      "name": "bridgeState",
      "outputs": [
        {
          "internalType": "contract IBridgeState",
          "name": "",
          "type": "address"
        }
      ],
      "payable": false,
      "stateMutability": "view",
      "type": "function"
    },
    {
      "constant": true,
      "inputs": [],
      "name": "bridgeValidator",
      "outputs": [
        {
          "internalType": "address payable",
          "name": "",
          "type": "address"
        }
      ],
      "payable": false,
      "stateMutability": "view",
      "type": "function"
    },
    {
      "constant": false,
      "inputs": [
        {
          "internalType": "bytes32",
          "name": "_currencyKey",
          "type": "bytes32"
        },
        {
          "internalType": "uint256",
          "name": "_burnAmount",
          "type": "uint256"
        }
      ],
      "name": "burnPynths",
      "outputs": [],
      "payable": false,
      "stateMutability": "nonpayable",
      "type": "function"
    },
    {
      "constant": false,
      "inputs": [
        {
          "internalType": "address",
          "name": "",
          "type": "address"
        },
        {
          "internalType": "uint256",
          "name": "",
          "type": "uint256"
        }
      ],
      "name": "burnSecondary",
      "outputs": [],
      "payable": false,
      "stateMutability": "nonpayable",
      "type": "function"
    },
    {
      "constant": false,
      "inputs": [],
      "name": "claimAllBridgedAmounts",
      "outputs": [],
      "payable": true,
      "stateMutability": "payable",
      "type": "function"
    },
    {
      "constant": true,
      "inputs": [
        {
          "internalType": "address",
          "name": "account",
          "type": "address"
        }
      ],
      "name": "collateral",
      "outputs": [
        {
          "internalType": "uint256",
          "name": "",
          "type": "uint256"
        }
      ],
      "payable": false,
      "stateMutability": "view",
      "type": "function"
    },
    {
      "constant": true,
      "inputs": [
        {
          "internalType": "address",
          "name": "_issuer",
          "type": "address"
        }
      ],
      "name": "collateralisationRatio",
      "outputs": [
        {
          "internalType": "uint256",
          "name": "",
          "type": "uint256"
        }
      ],
      "payable": false,
      "stateMutability": "view",
      "type": "function"
    },
    {
      "constant": true,
      "inputs": [
        {
          "internalType": "address",
          "name": "account",
          "type": "address"
        },
        {
          "internalType": "bytes32",
          "name": "currencyKey",
          "type": "bytes32"
        }
      ],
      "name": "debtBalanceOf",
      "outputs": [
        {
          "internalType": "uint256",
          "name": "",
          "type": "uint256"
        }
      ],
      "payable": false,
      "stateMutability": "view",
      "type": "function"
    },
    {
      "constant": true,
      "inputs": [],
      "name": "decimals",
      "outputs": [
        {
          "internalType": "uint8",
          "name": "",
          "type": "uint8"
        }
      ],
      "payable": false,
      "stateMutability": "view",
      "type": "function"
    },
    {
      "constant": false,
      "inputs": [
        {
          "internalType": "address",
          "name": "account",
          "type": "address"
        },
        {
          "internalType": "bytes32",
          "name": "currencyKey",
          "type": "bytes32"
        },
        {
          "internalType": "uint256",
          "name": "amount",
          "type": "uint256"
        }
      ],
      "name": "emitExchangeRebate",
      "outputs": [],
      "payable": false,
      "stateMutability": "nonpayable",
      "type": "function"
    },
    {
      "constant": false,
      "inputs": [
        {
          "internalType": "address",
          "name": "account",
          "type": "address"
        },
        {
          "internalType": "bytes32",
          "name": "currencyKey",
          "type": "bytes32"
        },
        {
          "internalType": "uint256",
          "name": "amount",
          "type": "uint256"
        }
      ],
      "name": "emitExchangeReclaim",
      "outputs": [],
      "payable": false,
      "stateMutability": "nonpayable",
      "type": "function"
    },
    {
      "constant": false,
      "inputs": [
        {
          "internalType": "bytes32",
          "name": "trackingCode",
          "type": "bytes32"
        },
        {
          "internalType": "bytes32",
          "name": "toCurrencyKey",
          "type": "bytes32"
        },
        {
          "internalType": "uint256",
          "name": "toAmount",
          "type": "uint256"
        }
      ],
      "name": "emitExchangeTracking",
      "outputs": [],
      "payable": false,
      "stateMutability": "nonpayable",
      "type": "function"
    },
    {
      "constant": false,
      "inputs": [
        {
          "internalType": "address",
          "name": "account",
          "type": "address"
        },
        {
          "internalType": "bytes32",
          "name": "fromCurrencyKey",
          "type": "bytes32"
        },
        {
          "internalType": "uint256",
          "name": "fromAmount",
          "type": "uint256"
        },
        {
          "internalType": "bytes32",
          "name": "toCurrencyKey",
          "type": "bytes32"
        },
        {
          "internalType": "uint256",
          "name": "toAmount",
          "type": "uint256"
        },
        {
          "internalType": "address",
          "name": "toAddress",
          "type": "address"
        }
      ],
      "name": "emitPynthExchange",
      "outputs": [],
      "payable": false,
      "stateMutability": "nonpayable",
      "type": "function"
    },
    {
      "constant": false,
      "inputs": [
        {
          "internalType": "bytes32",
          "name": "sourceCurrencyKey",
          "type": "bytes32"
        },
        {
          "internalType": "uint256",
          "name": "sourceAmount",
          "type": "uint256"
        },
        {
          "internalType": "bytes32",
          "name": "destinationCurrencyKey",
          "type": "bytes32"
        }
      ],
      "name": "exchange",
      "outputs": [
        {
          "internalType": "uint256",
          "name": "amountReceived",
          "type": "uint256"
        }
      ],
      "payable": false,
      "stateMutability": "nonpayable",
      "type": "function"
    },
    {
      "constant": false,
      "inputs": [
        {
          "internalType": "address",
          "name": "exchangeForAddress",
          "type": "address"
        },
        {
          "internalType": "bytes32",
          "name": "sourceCurrencyKey",
          "type": "bytes32"
        },
        {
          "internalType": "uint256",
          "name": "sourceAmount",
          "type": "uint256"
        },
        {
          "internalType": "bytes32",
          "name": "destinationCurrencyKey",
          "type": "bytes32"
        }
      ],
      "name": "exchangeOnBehalf",
      "outputs": [
        {
          "internalType": "uint256",
          "name": "amountReceived",
          "type": "uint256"
        }
      ],
      "payable": false,
      "stateMutability": "nonpayable",
      "type": "function"
    },
    {
      "constant": false,
      "inputs": [
        {
          "internalType": "address",
          "name": "exchangeForAddress",
          "type": "address"
        },
        {
          "internalType": "bytes32",
          "name": "sourceCurrencyKey",
          "type": "bytes32"
        },
        {
          "internalType": "uint256",
          "name": "sourceAmount",
          "type": "uint256"
        },
        {
          "internalType": "bytes32",
          "name": "destinationCurrencyKey",
          "type": "bytes32"
        },
        {
          "internalType": "address",
          "name": "originator",
          "type": "address"
        },
        {
          "internalType": "bytes32",
          "name": "trackingCode",
          "type": "bytes32"
        }
      ],
      "name": "exchangeOnBehalfWithTracking",
      "outputs": [
        {
          "internalType": "uint256",
          "name": "amountReceived",
          "type": "uint256"
        }
      ],
      "payable": false,
      "stateMutability": "nonpayable",
      "type": "function"
    },
    {
      "constant": false,
      "inputs": [
        {
          "internalType": "bytes32",
          "name": "sourceCurrencyKey",
          "type": "bytes32"
        },
        {
          "internalType": "uint256",
          "name": "sourceAmount",
          "type": "uint256"
        },
        {
          "internalType": "bytes32",
          "name": "destinationCurrencyKey",
          "type": "bytes32"
        },
        {
          "internalType": "address",
          "name": "originator",
          "type": "address"
        },
        {
          "internalType": "bytes32",
          "name": "trackingCode",
          "type": "bytes32"
        }
      ],
      "name": "exchangeWithTracking",
      "outputs": [
        {
          "internalType": "uint256",
          "name": "amountReceived",
          "type": "uint256"
        }
      ],
      "payable": false,
      "stateMutability": "nonpayable",
      "type": "function"
    },
    {
      "constant": false,
      "inputs": [
        {
          "internalType": "bytes32",
          "name": "",
          "type": "bytes32"
        },
        {
          "internalType": "uint256",
          "name": "",
          "type": "uint256"
        },
        {
          "internalType": "bytes32",
          "name": "",
          "type": "bytes32"
        },
        {
          "internalType": "bytes32",
          "name": "",
          "type": "bytes32"
        }
      ],
      "name": "exchangeWithVirtual",
      "outputs": [
        {
          "internalType": "uint256",
          "name": "",
          "type": "uint256"
        },
        {
          "internalType": "contract IVirtualPynth",
          "name": "",
          "type": "address"
        }
      ],
      "payable": false,
      "stateMutability": "nonpayable",
      "type": "function"
    },
    {
      "constant": false,
      "inputs": [],
      "name": "exit",
      "outputs": [],
      "payable": false,
      "stateMutability": "nonpayable",
      "type": "function"
    },
    {
      "constant": false,
      "inputs": [],
      "name": "fitToClaimable",
      "outputs": [],
      "payable": false,
      "stateMutability": "nonpayable",
      "type": "function"
    },
    {
      "constant": true,
      "inputs": [
        {
          "internalType": "bytes32",
          "name": "_contractName",
          "type": "bytes32"
        }
      ],
      "name": "getRequiredAddress",
      "outputs": [
        {
          "internalType": "address",
          "name": "",
          "type": "address"
        }
      ],
      "payable": false,
      "stateMutability": "view",
      "type": "function"
    },
    {
      "constant": true,
      "inputs": [],
      "name": "inflationMinter",
      "outputs": [
        {
          "internalType": "address",
          "name": "",
          "type": "address"
        }
      ],
      "payable": false,
      "stateMutability": "view",
      "type": "function"
    },
    {
      "constant": false,
      "inputs": [
        {
          "internalType": "uint256",
          "name": "_networkDebtShare",
          "type": "uint256"
        }
      ],
      "name": "inflationalMint",
      "outputs": [
        {
          "internalType": "bool",
          "name": "",
          "type": "bool"
        }
      ],
      "payable": false,
      "stateMutability": "nonpayable",
      "type": "function"
    },
    {
      "constant": true,
      "inputs": [],
      "name": "integrationProxy",
      "outputs": [
        {
          "internalType": "contract Proxy",
          "name": "",
          "type": "address"
        }
      ],
      "payable": false,
      "stateMutability": "view",
      "type": "function"
    },
    {
      "constant": true,
      "inputs": [],
      "name": "isResolverCached",
      "outputs": [
        {
          "internalType": "bool",
          "name": "",
          "type": "bool"
        }
      ],
      "payable": false,
      "stateMutability": "view",
      "type": "function"
    },
    {
      "constant": true,
      "inputs": [
        {
          "internalType": "bytes32",
          "name": "currencyKey",
          "type": "bytes32"
        }
      ],
      "name": "isWaitingPeriod",
      "outputs": [
        {
          "internalType": "bool",
          "name": "",
          "type": "bool"
        }
      ],
      "payable": false,
      "stateMutability": "view",
      "type": "function"
    },
    {
      "constant": false,
      "inputs": [],
      "name": "issueMaxPynths",
      "outputs": [],
      "payable": false,
      "stateMutability": "nonpayable",
      "type": "function"
    },
    {
      "constant": false,
      "inputs": [
        {
          "internalType": "bytes32",
          "name": "_currencyKey",
          "type": "bytes32"
        },
        {
          "internalType": "uint256",
          "name": "_issueAmount",
          "type": "uint256"
        }
      ],
      "name": "issuePynths",
      "outputs": [],
      "payable": false,
      "stateMutability": "nonpayable",
      "type": "function"
    },
    {
      "constant": false,
      "inputs": [
        {
          "internalType": "bytes32",
          "name": "_currencyKey",
          "type": "bytes32"
        }
      ],
      "name": "issuePynthsToMaxQuota",
      "outputs": [],
      "payable": false,
      "stateMutability": "nonpayable",
      "type": "function"
    },
    {
      "constant": false,
      "inputs": [
        {
          "internalType": "address",
          "name": "account",
          "type": "address"
        },
        {
          "internalType": "uint256",
          "name": "pusdAmount",
          "type": "uint256"
        }
      ],
      "name": "liquidateDelinquentAccount",
      "outputs": [
        {
          "internalType": "bool",
          "name": "",
          "type": "bool"
        }
      ],
      "payable": false,
      "stateMutability": "nonpayable",
      "type": "function"
    },
    {
      "constant": true,
      "inputs": [
        {
          "internalType": "address",
          "name": "account",
          "type": "address"
        }
      ],
      "name": "maxIssuablePynths",
      "outputs": [
        {
          "internalType": "uint256",
          "name": "maxIssuable",
          "type": "uint256"
        }
      ],
      "payable": false,
      "stateMutability": "view",
      "type": "function"
    },
    {
      "constant": true,
      "inputs": [],
      "name": "messageSender",
      "outputs": [
        {
          "internalType": "address",
          "name": "",
          "type": "address"
        }
      ],
      "payable": false,
      "stateMutability": "view",
      "type": "function"
    },
    {
      "constant": false,
      "inputs": [
        {
          "internalType": "address",
          "name": "_user",
          "type": "address"
        },
        {
          "internalType": "uint256",
          "name": "_amount",
          "type": "uint256"
        }
      ],
      "name": "mint",
      "outputs": [
        {
          "internalType": "bool",
          "name": "",
          "type": "bool"
        }
      ],
      "payable": false,
      "stateMutability": "nonpayable",
      "type": "function"
    },
    {
      "constant": false,
      "inputs": [
        {
          "internalType": "address",
          "name": "",
          "type": "address"
        },
        {
          "internalType": "uint256",
          "name": "",
          "type": "uint256"
        }
      ],
      "name": "mintSecondary",
      "outputs": [],
      "payable": false,
      "stateMutability": "nonpayable",
      "type": "function"
    },
    {
      "constant": false,
      "inputs": [
        {
          "internalType": "uint256",
          "name": "",
          "type": "uint256"
        }
      ],
      "name": "mintSecondaryRewards",
      "outputs": [],
      "payable": false,
      "stateMutability": "nonpayable",
      "type": "function"
    },
    {
      "constant": true,
      "inputs": [],
      "name": "minterRole",
      "outputs": [
        {
          "internalType": "address",
          "name": "",
          "type": "address"
        }
      ],
      "payable": false,
      "stateMutability": "view",
      "type": "function"
    },
    {
      "constant": true,
      "inputs": [],
      "name": "name",
      "outputs": [
        {
          "internalType": "string",
          "name": "",
          "type": "string"
        }
      ],
      "payable": false,
      "stateMutability": "view",
      "type": "function"
    },
    {
      "constant": false,
      "inputs": [
        {
          "internalType": "address",
          "name": "_owner",
          "type": "address"
        }
      ],
      "name": "nominateNewOwner",
      "outputs": [],
      "payable": false,
      "stateMutability": "nonpayable",
      "type": "function"
    },
    {
      "constant": true,
      "inputs": [],
      "name": "nominatedOwner",
      "outputs": [
        {
          "internalType": "address",
          "name": "",
          "type": "address"
        }
      ],
      "payable": false,
      "stateMutability": "view",
      "type": "function"
    },
    {
      "constant": false,
      "inputs": [
        {
          "internalType": "uint256",
          "name": "_amount",
          "type": "uint256"
        },
        {
          "internalType": "uint256",
          "name": "_destChainId",
          "type": "uint256"
        },
        {
          "components": [
            {
              "internalType": "bytes32",
              "name": "r",
              "type": "bytes32"
            },
            {
              "internalType": "bytes32",
              "name": "s",
              "type": "bytes32"
            },
            {
              "internalType": "uint8",
              "name": "v",
              "type": "uint8"
            }
          ],
          "internalType": "struct IBridgeState.Signature",
          "name": "_sign",
          "type": "tuple"
        }
      ],
      "name": "overchainTransfer",
      "outputs": [],
      "payable": true,
      "stateMutability": "payable",
      "type": "function"
    },
    {
      "constant": true,
      "inputs": [],
      "name": "owner",
      "outputs": [
        {
          "internalType": "address",
          "name": "",
          "type": "address"
        }
      ],
      "payable": false,
      "stateMutability": "view",
      "type": "function"
    },
    {
      "constant": true,
      "inputs": [],
      "name": "pUSD",
      "outputs": [
        {
          "internalType": "bytes32",
          "name": "",
          "type": "bytes32"
        }
      ],
      "payable": false,
      "stateMutability": "view",
      "type": "function"
    },
    {
      "constant": true,
      "inputs": [],
      "name": "proxy",
      "outputs": [
        {
          "internalType": "contract Proxy",
          "name": "",
          "type": "address"
        }
      ],
      "payable": false,
      "stateMutability": "view",
      "type": "function"
    },
    {
      "constant": true,
      "inputs": [
        {
          "internalType": "bytes32",
          "name": "currencyKey",
          "type": "bytes32"
        }
      ],
      "name": "pynths",
      "outputs": [
        {
          "internalType": "contract IPynth",
          "name": "",
          "type": "address"
        }
      ],
      "payable": false,
      "stateMutability": "view",
      "type": "function"
    },
    {
      "constant": true,
      "inputs": [
        {
          "internalType": "address",
          "name": "pynthAddress",
          "type": "address"
        }
      ],
      "name": "pynthsByAddress",
      "outputs": [
        {
          "internalType": "bytes32",
          "name": "",
          "type": "bytes32"
        }
      ],
      "payable": false,
      "stateMutability": "view",
      "type": "function"
    },
    {
      "constant": false,
      "inputs": [],
      "name": "rebuildCache",
      "outputs": [],
      "payable": false,
      "stateMutability": "nonpayable",
      "type": "function"
    },
    {
      "constant": true,
      "inputs": [
        {
          "internalType": "address",
          "name": "account",
          "type": "address"
        }
      ],
      "name": "remainingIssuablePynths",
      "outputs": [
        {
          "internalType": "uint256",
          "name": "maxIssuable",
          "type": "uint256"
        },
        {
          "internalType": "uint256",
          "name": "alreadyIssued",
          "type": "uint256"
        },
        {
          "internalType": "uint256",
          "name": "totalSystemDebt",
          "type": "uint256"
        }
      ],
      "payable": false,
      "stateMutability": "view",
      "type": "function"
    },
    {
      "constant": true,
      "inputs": [],
      "name": "resolver",
      "outputs": [
        {
          "internalType": "contract AddressResolver",
          "name": "",
          "type": "address"
        }
      ],
      "payable": false,
      "stateMutability": "view",
      "type": "function"
    },
    {
      "constant": true,
      "inputs": [],
      "name": "resolverAddressesRequired",
      "outputs": [
        {
          "internalType": "bytes32[]",
          "name": "addresses",
          "type": "bytes32[]"
        }
      ],
      "payable": false,
      "stateMutability": "view",
      "type": "function"
    },
    {
      "constant": false,
      "inputs": [
        {
          "internalType": "address",
          "name": "_blacklistManager",
          "type": "address"
        }
      ],
      "name": "setBlacklistManager",
      "outputs": [],
      "payable": false,
      "stateMutability": "nonpayable",
      "type": "function"
    },
    {
      "constant": false,
      "inputs": [
        {
          "internalType": "address",
          "name": "_newBridgeState",
          "type": "address"
        }
      ],
      "name": "setBridgeState",
      "outputs": [],
      "payable": false,
      "stateMutability": "nonpayable",
      "type": "function"
    },
    {
      "constant": false,
      "inputs": [
        {
          "internalType": "address payable",
          "name": "_bridgeValidator",
          "type": "address"
        }
      ],
      "name": "setBridgeValidator",
      "outputs": [],
      "payable": false,
      "stateMutability": "nonpayable",
      "type": "function"
    },
    {
      "constant": false,
      "inputs": [
        {
          "internalType": "address",
          "name": "_newInflationMinter",
          "type": "address"
        }
      ],
      "name": "setInflationMinter",
      "outputs": [],
      "payable": false,
      "stateMutability": "nonpayable",
      "type": "function"
    },
    {
      "constant": false,
      "inputs": [
        {
          "internalType": "address payable",
          "name": "_integrationProxy",
          "type": "address"
        }
      ],
      "name": "setIntegrationProxy",
      "outputs": [],
      "payable": false,
      "stateMutability": "nonpayable",
      "type": "function"
    },
    {
      "constant": false,
      "inputs": [
        {
          "internalType": "address",
          "name": "sender",
          "type": "address"
        }
      ],
      "name": "setMessageSender",
      "outputs": [],
      "payable": false,
      "stateMutability": "nonpayable",
      "type": "function"
    },
    {
      "constant": false,
      "inputs": [
        {
          "internalType": "address",
          "name": "_newMinter",
          "type": "address"
        }
      ],
      "name": "setMinterRole",
      "outputs": [],
      "payable": false,
      "stateMutability": "nonpayable",
      "type": "function"
    },
    {
      "constant": false,
      "inputs": [
        {
          "internalType": "address payable",
          "name": "_proxy",
          "type": "address"
        }
      ],
      "name": "setProxy",
      "outputs": [],
      "payable": false,
      "stateMutability": "nonpayable",
      "type": "function"
    },
    {
      "constant": false,
      "inputs": [
        {
          "internalType": "contract TokenState",
          "name": "_tokenState",
          "type": "address"
        }
      ],
      "name": "setTokenState",
      "outputs": [],
      "payable": false,
      "stateMutability": "nonpayable",
      "type": "function"
    },
    {
      "constant": false,
      "inputs": [
        {
          "internalType": "bytes32",
          "name": "currencyKey",
          "type": "bytes32"
        }
      ],
      "name": "settle",
      "outputs": [
        {
          "internalType": "uint256",
          "name": "reclaimed",
          "type": "uint256"
        },
        {
          "internalType": "uint256",
          "name": "refunded",
          "type": "uint256"
        },
        {
          "internalType": "uint256",
          "name": "numEntriesSettled",
          "type": "uint256"
        }
      ],
      "payable": false,
      "stateMutability": "nonpayable",
      "type": "function"
    },
    {
      "constant": true,
      "inputs": [],
      "name": "symbol",
      "outputs": [
        {
          "internalType": "string",
          "name": "",
          "type": "string"
        }
      ],
      "payable": false,
      "stateMutability": "view",
      "type": "function"
    },
    {
      "constant": true,
      "inputs": [],
      "name": "tokenState",
      "outputs": [
        {
          "internalType": "contract TokenState",
          "name": "",
          "type": "address"
        }
      ],
      "payable": false,
      "stateMutability": "view",
      "type": "function"
    },
    {
      "constant": true,
      "inputs": [
        {
          "internalType": "bytes32",
          "name": "currencyKey",
          "type": "bytes32"
        }
      ],
      "name": "totalIssuedPynths",
      "outputs": [
        {
          "internalType": "uint256",
          "name": "totalIssued",
          "type": "uint256"
        }
      ],
      "payable": false,
      "stateMutability": "view",
      "type": "function"
    },
    {
      "constant": true,
      "inputs": [
        {
          "internalType": "bytes32",
          "name": "currencyKey",
          "type": "bytes32"
        }
      ],
      "name": "totalIssuedPynthsExcludeEtherCollateral",
      "outputs": [
        {
          "internalType": "uint256",
          "name": "totalIssued",
          "type": "uint256"
        }
      ],
      "payable": false,
      "stateMutability": "view",
      "type": "function"
    },
    {
      "constant": true,
      "inputs": [],
      "name": "totalSupply",
      "outputs": [
        {
          "internalType": "uint256",
          "name": "",
          "type": "uint256"
        }
      ],
      "payable": false,
      "stateMutability": "view",
      "type": "function"
    },
    {
      "constant": false,
      "inputs": [
        {
          "internalType": "address",
          "name": "to",
          "type": "address"
        },
        {
          "internalType": "uint256",
          "name": "value",
          "type": "uint256"
        }
      ],
      "name": "transfer",
      "outputs": [
        {
          "internalType": "bool",
          "name": "",
          "type": "bool"
        }
      ],
      "payable": false,
      "stateMutability": "nonpayable",
      "type": "function"
    },
    {
      "constant": false,
      "inputs": [
        {
          "internalType": "address",
          "name": "from",
          "type": "address"
        },
        {
          "internalType": "address",
          "name": "to",
          "type": "address"
        },
        {
          "internalType": "uint256",
          "name": "value",
          "type": "uint256"
        }
      ],
      "name": "transferFrom",
      "outputs": [
        {
          "internalType": "bool",
          "name": "",
          "type": "bool"
        }
      ],
      "payable": false,
      "stateMutability": "nonpayable",
      "type": "function"
    },
    {
      "constant": true,
      "inputs": [
        {
          "internalType": "address",
          "name": "account",
          "type": "address"
        }
      ],
      "name": "transferablePeriFinance",
      "outputs": [
        {
          "internalType": "uint256",
          "name": "transferable",
          "type": "uint256"
        }
      ],
      "payable": false,
      "stateMutability": "view",
      "type": "function"
    }
  ],
  "bytecode": "0x60806040523480156200001157600080fd5b5060405162009f4e38038062009f4e833981810160405262000037919081019062000571565b8787878787868186866040518060400160405280601281526020017f506572692046696e616e636520546f6b656e00000000000000000000000000008152506040518060400160405280600481526020017f50455249000000000000000000000000000000000000000000000000000000008152508760128a8681600073ffffffffffffffffffffffffffffffffffffffff168173ffffffffffffffffffffffffffffffffffffffff16141562000125576040517f08c379a00000000000000000000000000000000000000000000000000000000081526004016200011c9062000746565b60405180910390fd5b806000806101000a81548173ffffffffffffffffffffffffffffffffffffffff021916908373ffffffffffffffffffffffffffffffffffffffff1602179055507fb532073b38c83145e3e5135377a08bf9aab55bc0fd7c1179cd4fb995d2a5159c60008260405162000199929190620006f7565b60405180910390a150600073ffffffffffffffffffffffffffffffffffffffff166000809054906101000a900473ffffffffffffffffffffffffffffffffffffffff1673ffffffffffffffffffffffffffffffffffffffff16141562000236576040517f08c379a00000000000000000000000000000000000000000000000000000000081526004016200022d9062000724565b60405180910390fd5b80600260006101000a81548173ffffffffffffffffffffffffffffffffffffffff021916908373ffffffffffffffffffffffffffffffffffffffff1602179055507ffc80377ca9c49cc11ae6982f390a42db976d5530af7c43889264b13fbbd7c57e81604051620002a89190620006da565b60405180910390a15085600560006101000a81548173ffffffffffffffffffffffffffffffffffffffff021916908373ffffffffffffffffffffffffffffffffffffffff16021790555084600690805190602001906200030a92919062000466565b5083600790805190602001906200032392919062000466565b508260088190555081600960006101000a81548160ff021916908360ff1602179055505050505050505080600960016101000a81548173ffffffffffffffffffffffffffffffffffffffff021916908373ffffffffffffffffffffffffffffffffffffffff1602179055505080600b60006101000a81548173ffffffffffffffffffffffffffffffffffffffff021916908373ffffffffffffffffffffffffffffffffffffffff16021790555050505050505082600c60006101000a81548173ffffffffffffffffffffffffffffffffffffffff021916908373ffffffffffffffffffffffffffffffffffffffff16021790555080600e60006101000a81548173ffffffffffffffffffffffffffffffffffffffff021916908373ffffffffffffffffffffffffffffffffffffffff160217905550505050505050505062000883565b828054600181600116156101000203166002900490600052602060002090601f016020900481019282601f10620004a957805160ff1916838001178555620004da565b82800160010185558215620004da579182015b82811115620004d9578251825591602001919060010190620004bc565b5b509050620004e99190620004ed565b5090565b6200051291905b808211156200050e576000816000905550600101620004f4565b5090565b90565b60008151905062000526816200081b565b92915050565b6000815190506200053d8162000835565b92915050565b60008151905062000554816200084f565b92915050565b6000815190506200056b8162000869565b92915050565b600080600080600080600080610100898b0312156200058f57600080fd5b60006200059f8b828c016200052c565b9850506020620005b28b828c0162000543565b9750506040620005c58b828c0162000515565b9650506060620005d88b828c016200055a565b9550506080620005eb8b828c0162000515565b94505060a0620005fe8b828c0162000515565b93505060c0620006118b828c0162000515565b92505060e0620006248b828c016200052c565b9150509295985092959890939650565b6200063f81620007df565b82525050565b620006508162000779565b82525050565b60006200066560118362000768565b91507f4f776e6572206d757374206265207365740000000000000000000000000000006000830152602082019050919050565b6000620006a760198362000768565b91507f4f776e657220616464726573732063616e6e6f742062652030000000000000006000830152602082019050919050565b6000602082019050620006f1600083018462000634565b92915050565b60006040820190506200070e600083018562000634565b6200071d602083018462000645565b9392505050565b600060208201905081810360008301526200073f8162000656565b9050919050565b60006020820190508181036000830152620007618162000698565b9050919050565b600082825260208201905092915050565b60006200078682620007b5565b9050919050565b60006200079a82620007b5565b9050919050565b6000620007ae8262000779565b9050919050565b600073ffffffffffffffffffffffffffffffffffffffff82169050919050565b6000819050919050565b6000620007ec82620007f3565b9050919050565b6000620008008262000807565b9050919050565b60006200081482620007b5565b9050919050565b620008268162000779565b81146200083257600080fd5b50565b62000840816200078d565b81146200084c57600080fd5b50565b6200085a81620007a1565b81146200086657600080fd5b50565b6200087481620007d5565b81146200088057600080fd5b50565b6196bb80620008936000396000f3fe6080604052600436106104735760003560e01c8063945d12291161024a578063d3a7120211610139578063e3c3af98116100b6578063edef719a1161007a578063edef719a14611243578063ee52a2f31461126c578063f084219e146112a9578063f5adc4f5146112d4578063f9eea80c146112ff57610473565b8063e3c3af981461115c578063e6203ed114611199578063e90dd9e2146111d6578063e9fad8ee14611201578063ec5568891461121857610473565b8063d9dbf657116100fd578063d9dbf65714611077578063dd62ed3e146110a2578063ddd03a3f146110df578063e12c4cea14611108578063e22760f71461113157610473565b8063d3a7120214610f7e578063d67bdd2514610fbb578063d6980ba114610fe6578063d8a1f76f14611023578063d99947de1461104c57610473565b8063a5fdc5de116101c7578063bc67f8321161018b578063bc67f83214610e60578063becf5ff814610e89578063c836fa0a14610ec7578063c9a2f3ad14610f04578063d37c4d8b14610f4157610473565b8063a5fdc5de14610d76578063a9059cbb14610db3578063ace88afd14610df0578063af5a5e4c14610e19578063b13c7e1914610e2357610473565b80639cbdaeb61161020e5780639cbdaeb614610c7f5780639df95f9f14610caa5780639f76980714610ce7578063a311c7c214610d10578063a56c62cf14610d4d57610473565b8063945d122914610ba757806395d89b4114610bd057806397107d6d14610bfb578063987757dd14610c245780639a26669e14610c6357610473565b806340c10f191161036657806370a08231116102e357806385d18d36116102a757806385d18d3614610ad4578063899ffef414610afd5780638da5cb5b14610b285780638e2ac0ea14610b5357806391e56b6814610b6a57610473565b806370a0823114610a1557806372cb051f14610a525780637418536014610a7d57806379ba509714610a94578063842efb0114610aab57610473565b806353a47bb71161032a57806353a47bb71461091e57806355182ccb1461094957806357ad466314610986578063666ed4f1146109c35780636f01a986146109ec57610473565b806340c10f191461084d578063440c67781461088a5780634466ec2c146108b357806350d0573c146108de578063534f079c146108f557610473565b80631fce304d116103f45780632e0f2625116103b85780632e0f26251461075057806330ead7601461077b578063313ce567146107b8578063321ea17c146107e35780633b09280a1461080e57610473565b80631fce304d1461064357806323b872dd146106805780632a905318146106bd5780632af64bd3146106e85780632bc93ad61461071357610473565b8063131b0ae71161043b578063131b0ae7146105725780631627540c1461059b57806318160ddd146105c457806318821400146105ef5780631b99084c1461061a57610473565b806304f3bcec1461047857806306fdde03146104a3578063095ea7b3146104ce5780630a057b761461050b5780630e30963c14610534575b600080fd5b34801561048457600080fd5b5061048d61132a565b60405161049a9190618cb6565b60405180910390f35b3480156104af57600080fd5b506104b8611350565b6040516104c59190618d58565b60405180910390f35b3480156104da57600080fd5b506104f560048036036104f09190810190617271565b6113ee565b6040516105029190618a21565b60405180910390f35b34801561051757600080fd5b50610532600480360361052d9190810190617483565b6114c6565b005b34801561054057600080fd5b5061055b60048036036105569190810190617585565b61159f565b604051610569929190619137565b60405180910390f35b34801561057e57600080fd5b5061059960048036036105949190810190616fbd565b6115b3565b005b3480156105a757600080fd5b506105c260048036036105bd9190810190616f6b565b6115ff565b005b3480156105d057600080fd5b506105d9611682565b6040516105e6919061911c565b60405180910390f35b3480156105fb57600080fd5b50610604611688565b6040516106119190618d58565b60405180910390f35b34801561062657600080fd5b50610641600480360361063c91908101906171e8565b6116c1565b005b34801561064f57600080fd5b5061066a600480360361066591908101906173e2565b6117ac565b6040516106779190618a21565b60405180910390f35b34801561068c57600080fd5b506106a760048036036106a29190810190617022565b61186b565b6040516106b49190618a21565b60405180910390f35b3480156106c957600080fd5b506106d26118f7565b6040516106df9190618d58565b60405180910390f35b3480156106f457600080fd5b506106fd611930565b60405161070a9190618a21565b60405180910390f35b34801561071f57600080fd5b5061073a600480360361073591908101906173e2565b611b05565b604051610747919061869c565b60405180910390f35b34801561075c57600080fd5b50610765611b17565b60405161077291906191f7565b60405180910390f35b34801561078757600080fd5b506107a2600480360361079d919081019061750e565b611b1c565b6040516107af919061911c565b60405180910390f35b3480156107c457600080fd5b506107cd611c4e565b6040516107da91906191f7565b60405180910390f35b3480156107ef57600080fd5b506107f8611c61565b604051610805919061869c565b60405180910390f35b34801561081a57600080fd5b5061083560048036036108309190810190616f6b565b611c87565b604051610844939291906191c0565b60405180910390f35b34801561085957600080fd5b50610874600480360361086f9190810190617271565b611d29565b6040516108819190618a21565b60405180910390f35b34801561089657600080fd5b506108b160048036036108ac9190810190616f6b565b611fd8565b005b3480156108bf57600080fd5b506108c8612024565b6040516108d59190618cec565b60405180910390f35b3480156108ea57600080fd5b506108f361204a565b005b34801561090157600080fd5b5061091c60048036036109179190810190617483565b61211d565b005b34801561092a57600080fd5b506109336121f6565b604051610940919061869c565b60405180910390f35b34801561095557600080fd5b50610970600480360361096b9190810190616f6b565b61221c565b60405161097d919061911c565b60405180910390f35b34801561099257600080fd5b506109ad60048036036109a891908101906173e2565b6122b5565b6040516109ba9190618d07565b60405180910390f35b3480156109cf57600080fd5b506109ea60048036036109e59190810190617271565b61234e565b005b3480156109f857600080fd5b50610a136004803603610a0e91908101906170ad565b61235a565b005b348015610a2157600080fd5b50610a3c6004803603610a379190810190616f6b565b61243c565b604051610a49919061911c565b60405180910390f35b348015610a5e57600080fd5b50610a676124f0565b604051610a7491906189ff565b60405180910390f35b348015610a8957600080fd5b50610a92612581565b005b348015610aa057600080fd5b50610aa9612722565b005b348015610ab757600080fd5b50610ad26004803603610acd9190810190616fbd565b6128d4565b005b348015610ae057600080fd5b50610afb6004803603610af691908101906173e2565b612920565b005b348015610b0957600080fd5b50610b126129f6565b604051610b1f91906189ff565b60405180910390f35b348015610b3457600080fd5b50610b3d612abd565b604051610b4a919061869c565b60405180910390f35b348015610b5f57600080fd5b50610b68612ae2565b005b348015610b7657600080fd5b50610b916004803603610b8c919081019061715f565b612bb5565b604051610b9e919061911c565b60405180910390f35b348015610bb357600080fd5b50610bce6004803603610bc99190810190616f6b565b612cd1565b005b348015610bdc57600080fd5b50610be5612d1d565b604051610bf29190618d58565b60405180910390f35b348015610c0757600080fd5b50610c226004803603610c1d9190810190616fbd565b612dbb565b005b348015610c3057600080fd5b50610c4b6004803603610c4691908101906173e2565b612e3e565b604051610c5a939291906191c0565b60405180910390f35b610c7d6004803603610c789190810190617704565b612f3b565b005b348015610c8b57600080fd5b50610c946133a3565b604051610ca19190618d22565b60405180910390f35b348015610cb657600080fd5b50610cd16004803603610ccc919081019061763a565b6133c9565b604051610cde9190618d07565b60405180910390f35b348015610cf357600080fd5b50610d0e6004803603610d099190810190617611565b613462565b005b348015610d1c57600080fd5b50610d376004803603610d329190810190616f6b565b6134b7565b604051610d44919061911c565b60405180910390f35b348015610d5957600080fd5b50610d746004803603610d6f9190810190616f6b565b613550565b005b348015610d8257600080fd5b50610d9d6004803603610d989190810190616f6b565b61360c565b604051610daa919061911c565b60405180910390f35b348015610dbf57600080fd5b50610dda6004803603610dd59190810190617271565b6136a5565b604051610de79190618a21565b60405180910390f35b348015610dfc57600080fd5b50610e176004803603610e1291908101906170ad565b613749565b005b610e2161382b565b005b348015610e2f57600080fd5b50610e4a6004803603610e45919081019061763a565b613aba565b604051610e579190618a21565b60405180910390f35b348015610e6c57600080fd5b50610e876004803603610e829190810190616f6b565b61418e565b005b348015610e9557600080fd5b50610eb06004803603610eab9190810190616f6b565b6141da565b604051610ebe929190619160565b60405180910390f35b348015610ed357600080fd5b50610eee6004803603610ee991908101906170fc565b614279565b604051610efb919061911c565b60405180910390f35b348015610f1057600080fd5b50610f2b6004803603610f269190810190616f6b565b61438f565b604051610f389190618a3c565b60405180910390f35b348015610f4d57600080fd5b50610f686004803603610f639190810190617071565b614428565b604051610f75919061911c565b60405180910390f35b348015610f8a57600080fd5b50610fa56004803603610fa091908101906173e2565b6144c4565b604051610fb2919061911c565b60405180910390f35b348015610fc757600080fd5b50610fd0614562565b604051610fdd919061869c565b60405180910390f35b348015610ff257600080fd5b5061100d600480360361100891908101906173e2565b614588565b60405161101a919061911c565b60405180910390f35b34801561102f57600080fd5b5061104a6004803603611045919081019061763a565b614626565b005b34801561105857600080fd5b50611061614631565b60405161106e919061911c565b60405180910390f35b34801561108357600080fd5b5061108c6146bd565b6040516110999190618cd1565b60405180910390f35b3480156110ae57600080fd5b506110c960048036036110c49190810190616fe6565b6146e3565b6040516110d6919061911c565b60405180910390f35b3480156110eb57600080fd5b5061110660048036036111019190810190617434565b61479a565b005b34801561111457600080fd5b5061112f600480360361112a9190810190616f6b565b614874565b005b34801561113d57600080fd5b506111466148c0565b60405161115391906186d2565b60405180910390f35b34801561116857600080fd5b50611183600480360361117e9190810190616f6b565b6148e6565b604051611190919061911c565b60405180910390f35b3480156111a557600080fd5b506111c060048036036111bb9190810190617271565b614a2d565b6040516111cd9190618a21565b60405180910390f35b3480156111e257600080fd5b506111eb614b8f565b6040516111f89190618d3d565b60405180910390f35b34801561120d57600080fd5b50611216614bb5565b005b34801561122457600080fd5b5061122d614c88565b60405161123a9190618d22565b60405180910390f35b34801561124f57600080fd5b5061126a60048036036112659190810190617271565b614cae565b005b34801561127857600080fd5b50611293600480360361128e91908101906174bf565b614cba565b6040516112a0919061911c565b60405180910390f35b3480156112b557600080fd5b506112be614de6565b6040516112cb919061869c565b60405180910390f35b3480156112e057600080fd5b506112e9614e0c565b6040516112f69190618a21565b60405180910390f35b34801561130b57600080fd5b50611314614e98565b6040516113219190618a3c565b60405180910390f35b600960019054906101000a900473ffffffffffffffffffffffffffffffffffffffff1681565b60068054600181600116156101000203166002900480601f0160208091040260200160405190810160405280929190818152602001828054600181600116156101000203166002900480156113e65780601f106113bb576101008083540402835291602001916113e6565b820191906000526020600020905b8154815290600101906020018083116113c957829003601f168201915b505050505081565b60006113f8614ebc565b6000600460009054906101000a900473ffffffffffffffffffffffffffffffffffffffff169050600560009054906101000a900473ffffffffffffffffffffffffffffffffffffffff1673ffffffffffffffffffffffffffffffffffffffff1663da46098c8286866040518463ffffffff1660e01b815260040161147e93929190618801565b600060405180830381600087803b15801561149857600080fd5b505af11580156114ac573d6000803e3d6000fd5b505050506114bb81858561500b565b600191505092915050565b6114ce6150eb565b6114d6614ebc565b600460009054906101000a900473ffffffffffffffffffffffffffffffffffffffff1661150281615152565b61150a6152d2565b73ffffffffffffffffffffffffffffffffffffffff16636ac471c4600460009054906101000a900473ffffffffffffffffffffffffffffffffffffffff1685856040518463ffffffff1660e01b815260040161156893929190618861565b600060405180830381600087803b15801561158257600080fd5b505af1158015611596573d6000803e3d6000fd5b50505050505050565b6000806115aa615302565b94509492505050565b6115bb61533d565b80600360006101000a81548173ffffffffffffffffffffffffffffffffffffffff021916908373ffffffffffffffffffffffffffffffffffffffff16021790555050565b61160761533d565b80600160006101000a81548173ffffffffffffffffffffffffffffffffffffffff021916908373ffffffffffffffffffffffffffffffffffffffff1602179055507f906a1c6bd7e3091ea86693dd029a831c19049ce77f1dce2ce0bab1cacbabce2281604051611677919061869c565b60405180910390a150565b60085481565b6040518060400160405280601281526020017f506572692046696e616e636520546f6b656e000000000000000000000000000081525081565b6116c96153ce565b600260009054906101000a900473ffffffffffffffffffffffffffffffffffffffff1673ffffffffffffffffffffffffffffffffffffffff1663907dff978686868686604051602001611720959493929190618b2b565b604051602081830303815290604052600260405161173d906185bd565b604051809103902061174e8b615445565b6000806040518763ffffffff1660e01b815260040161177296959493929190618be6565b600060405180830381600087803b15801561178c57600080fd5b505af11580156117a0573d6000803e3d6000fd5b50505050505050505050565b6000806117b7615468565b73ffffffffffffffffffffffffffffffffffffffff1663059c29ec600460009054906101000a900473ffffffffffffffffffffffffffffffffffffffff16856040518363ffffffff1660e01b8152600401611813929190618838565b60206040518083038186803b15801561182b57600080fd5b505afa15801561183f573d6000803e3d6000fd5b505050506040513d601f19601f820116820180604052506118639190810190617663565b119050919050565b6000611875614ebc565b61187d615498565b600460009054906101000a900473ffffffffffffffffffffffffffffffffffffffff166118a981615152565b846118b381615152565b6118bd86856154ff565b506118ec600460009054906101000a900473ffffffffffffffffffffffffffffffffffffffff16878787615771565b925050509392505050565b6040518060400160405280600481526020017f504552490000000000000000000000000000000000000000000000000000000081525081565b6000606061193c6129f6565b905060008090505b8151811015611afb57600082828151811061195b57fe5b60200260200101519050600a600082815260200190815260200160002060009054906101000a900473ffffffffffffffffffffffffffffffffffffffff1673ffffffffffffffffffffffffffffffffffffffff16600960019054906101000a900473ffffffffffffffffffffffffffffffffffffffff1673ffffffffffffffffffffffffffffffffffffffff166321f8a721836040518263ffffffff1660e01b8152600401611a0a9190618a3c565b60206040518083038186803b158015611a2257600080fd5b505afa158015611a36573d6000803e3d6000fd5b505050506040513d601f19601f82011682018060405250611a5a9190810190616f94565b73ffffffffffffffffffffffffffffffffffffffff16141580611adc5750600073ffffffffffffffffffffffffffffffffffffffff16600a600083815260200190815260200160002060009054906101000a900473ffffffffffffffffffffffffffffffffffffffff1673ffffffffffffffffffffffffffffffffffffffff16145b15611aed5760009350505050611b02565b508080600101915050611944565b5060019150505b90565b6000611b10826158d7565b9050919050565b601281565b60008584611b2a82826159ac565b611b32614ebc565b600460009054906101000a900473ffffffffffffffffffffffffffffffffffffffff16611b5e81615152565b611b66615468565b73ffffffffffffffffffffffffffffffffffffffff166386baa45c600460009054906101000a900473ffffffffffffffffffffffffffffffffffffffff168b8b8b600460009054906101000a900473ffffffffffffffffffffffffffffffffffffffff168c8c6040518863ffffffff1660e01b8152600401611bee97969594939291906188eb565b602060405180830381600087803b158015611c0857600080fd5b505af1158015611c1c573d6000803e3d6000fd5b505050506040513d601f19601f82011682018060405250611c409190810190617663565b935050505095945050505050565b600960009054906101000a900460ff1681565b600d60009054906101000a900473ffffffffffffffffffffffffffffffffffffffff1681565b6000806000611c946152d2565b73ffffffffffffffffffffffffffffffffffffffff16633b09280a856040518263ffffffff1660e01b8152600401611ccc919061869c565b60606040518083038186803b158015611ce457600080fd5b505afa158015611cf8573d6000803e3d6000fd5b505050506040513d601f19601f82011682018060405250611d1c9190810190617753565b9250925092509193909250565b6000611d33614ebc565b600073ffffffffffffffffffffffffffffffffffffffff16600c60009054906101000a900473ffffffffffffffffffffffffffffffffffffffff1673ffffffffffffffffffffffffffffffffffffffff161415611dc5576040517f08c379a0000000000000000000000000000000000000000000000000000000008152600401611dbc90618efc565b60405180910390fd5b600460009054906101000a900473ffffffffffffffffffffffffffffffffffffffff1673ffffffffffffffffffffffffffffffffffffffff16600c60009054906101000a900473ffffffffffffffffffffffffffffffffffffffff1673ffffffffffffffffffffffffffffffffffffffff1614611e77576040517f08c379a0000000000000000000000000000000000000000000000000000000008152600401611e6e90618e1c565b60405180910390fd5b600560009054906101000a900473ffffffffffffffffffffffffffffffffffffffff1673ffffffffffffffffffffffffffffffffffffffff1663b46310f684611f7385600560009054906101000a900473ffffffffffffffffffffffffffffffffffffffff1673ffffffffffffffffffffffffffffffffffffffff166370a08231896040518263ffffffff1660e01b8152600401611f15919061869c565b60206040518083038186803b158015611f2d57600080fd5b505afa158015611f41573d6000803e3d6000fd5b505050506040513d601f19601f82011682018060405250611f659190810190617663565b615a2290919063ffffffff16565b6040518363ffffffff1660e01b8152600401611f9092919061895a565b600060405180830381600087803b158015611faa57600080fd5b505af1158015611fbe573d6000803e3d6000fd5b50505050611fce60008484615a77565b6001905092915050565b611fe061533d565b80600f60006101000a81548173ffffffffffffffffffffffffffffffffffffffff021916908373ffffffffffffffffffffffffffffffffffffffff16021790555050565b600f60009054906101000a900473ffffffffffffffffffffffffffffffffffffffff1681565b6120526150eb565b61205a614ebc565b600460009054906101000a900473ffffffffffffffffffffffffffffffffffffffff1661208681615152565b61208e6152d2565b73ffffffffffffffffffffffffffffffffffffffff166394955cec600460009054906101000a900473ffffffffffffffffffffffffffffffffffffffff166040518263ffffffff1660e01b81526004016120e8919061869c565b600060405180830381600087803b15801561210257600080fd5b505af1158015612116573d6000803e3d6000fd5b5050505050565b6121256150eb565b61212d614ebc565b600460009054906101000a900473ffffffffffffffffffffffffffffffffffffffff1661215981615152565b6121616152d2565b73ffffffffffffffffffffffffffffffffffffffff166308f95a62600460009054906101000a900473ffffffffffffffffffffffffffffffffffffffff1685856040518463ffffffff1660e01b81526004016121bf93929190618861565b600060405180830381600087803b1580156121d957600080fd5b505af11580156121ed573d6000803e3d6000fd5b50505050505050565b600160009054906101000a900473ffffffffffffffffffffffffffffffffffffffff1681565b60006122266152d2565b73ffffffffffffffffffffffffffffffffffffffff166355182ccb836040518263ffffffff1660e01b815260040161225e919061869c565b60206040518083038186803b15801561227657600080fd5b505afa15801561228a573d6000803e3d6000fd5b505050506040513d601f19601f820116820180604052506122ae9190810190617663565b9050919050565b60006122bf6152d2565b73ffffffffffffffffffffffffffffffffffffffff166357ad4663836040518263ffffffff1660e01b81526004016122f79190618a3c565b60206040518083038186803b15801561230f57600080fd5b505afa158015612323573d6000803e3d6000fd5b505050506040513d601f19601f8201168201806040525061234791908101906175e8565b9050919050565b612356615302565b5050565b6123626153ce565b600260009054906101000a900473ffffffffffffffffffffffffffffffffffffffff1673ffffffffffffffffffffffffffffffffffffffff1663907dff9783836040516020016123b3929190618b02565b60405160208183030381529060405260026040516123d09061860d565b60405180910390206123e188615445565b6000806040518763ffffffff1660e01b815260040161240596959493929190618be6565b600060405180830381600087803b15801561241f57600080fd5b505af1158015612433573d6000803e3d6000fd5b50505050505050565b6000600560009054906101000a900473ffffffffffffffffffffffffffffffffffffffff1673ffffffffffffffffffffffffffffffffffffffff166370a08231836040518263ffffffff1660e01b8152600401612499919061869c565b60206040518083038186803b1580156124b157600080fd5b505afa1580156124c5573d6000803e3d6000fd5b505050506040513d601f19601f820116820180604052506124e99190810190617663565b9050919050565b60606124fa6152d2565b73ffffffffffffffffffffffffffffffffffffffff166372cb051f6040518163ffffffff1660e01b815260040160006040518083038186803b15801561253f57600080fd5b505afa158015612553573d6000803e3d6000fd5b505050506040513d6000823e3d601f19601f8201168201806040525061257c9190810190617337565b905090565b606061258b6129f6565b905060008090505b815181101561271e5760008282815181106125aa57fe5b602002602001015190506000600960019054906101000a900473ffffffffffffffffffffffffffffffffffffffff1673ffffffffffffffffffffffffffffffffffffffff1663dacb2d0183846040516020016126069190618661565b6040516020818303038152906040526040518363ffffffff1660e01b8152600401612632929190618ad2565b60206040518083038186803b15801561264a57600080fd5b505afa15801561265e573d6000803e3d6000fd5b505050506040513d601f19601f820116820180604052506126829190810190616f94565b905080600a600084815260200190815260200160002060006101000a81548173ffffffffffffffffffffffffffffffffffffffff021916908373ffffffffffffffffffffffffffffffffffffffff1602179055507f88a93678a3692f6789d9546fc621bf7234b101ddb7d4fe479455112831b8aa688282604051612707929190618a57565b60405180910390a150508080600101915050612593565b5050565b600160009054906101000a900473ffffffffffffffffffffffffffffffffffffffff1673ffffffffffffffffffffffffffffffffffffffff163373ffffffffffffffffffffffffffffffffffffffff16146127b2576040517f08c379a00000000000000000000000000000000000000000000000000000000081526004016127a990618dbc565b60405180910390fd5b7fb532073b38c83145e3e5135377a08bf9aab55bc0fd7c1179cd4fb995d2a5159c6000809054906101000a900473ffffffffffffffffffffffffffffffffffffffff16600160009054906101000a900473ffffffffffffffffffffffffffffffffffffffff16604051612826929190618716565b60405180910390a1600160009054906101000a900473ffffffffffffffffffffffffffffffffffffffff166000806101000a81548173ffffffffffffffffffffffffffffffffffffffff021916908373ffffffffffffffffffffffffffffffffffffffff1602179055506000600160006101000a81548173ffffffffffffffffffffffffffffffffffffffff021916908373ffffffffffffffffffffffffffffffffffffffff160217905550565b6128dc61533d565b80600e60006101000a81548173ffffffffffffffffffffffffffffffffffffffff021916908373ffffffffffffffffffffffffffffffffffffffff16021790555050565b6129286150eb565b612930614ebc565b600460009054906101000a900473ffffffffffffffffffffffffffffffffffffffff1661295c81615152565b6129646152d2565b73ffffffffffffffffffffffffffffffffffffffff1663171af063600460009054906101000a900473ffffffffffffffffffffffffffffffffffffffff16846040518363ffffffff1660e01b81526004016129c0929190618838565b600060405180830381600087803b1580156129da57600080fd5b505af11580156129ee573d6000803e3d6000fd5b505050505050565b606080612a01615b57565b905060606002604051908082528060200260200182016040528015612a355781602001602082028038833980820191505090505b5090507f526577617264457363726f77563200000000000000000000000000000000000081600081518110612a6657fe5b6020026020010181815250507f537570706c795363686564756c6500000000000000000000000000000000000081600181518110612aa057fe5b602002602001018181525050612ab68282615ceb565b9250505090565b6000809054906101000a900473ffffffffffffffffffffffffffffffffffffffff1681565b612aea6150eb565b612af2614ebc565b600460009054906101000a900473ffffffffffffffffffffffffffffffffffffffff16612b1e81615152565b612b266152d2565b73ffffffffffffffffffffffffffffffffffffffff1663f0617e5b600460009054906101000a900473ffffffffffffffffffffffffffffffffffffffff166040518263ffffffff1660e01b8152600401612b80919061869c565b600060405180830381600087803b158015612b9a57600080fd5b505af1158015612bae573d6000803e3d6000fd5b5050505050565b60008584612bc382826159ac565b612bcb614ebc565b600460009054906101000a900473ffffffffffffffffffffffffffffffffffffffff16612bf781615152565b89612c0181615152565b612c09615468565b73ffffffffffffffffffffffffffffffffffffffff1663dfffca768c600460009054906101000a900473ffffffffffffffffffffffffffffffffffffffff168d8d8d8d8d6040518863ffffffff1660e01b8152600401612c6f9796959493929190618792565b602060405180830381600087803b158015612c8957600080fd5b505af1158015612c9d573d6000803e3d6000fd5b505050506040513d601f19601f82011682018060405250612cc19190810190617663565b9450505050509695505050505050565b612cd961533d565b80600c60006101000a81548173ffffffffffffffffffffffffffffffffffffffff021916908373ffffffffffffffffffffffffffffffffffffffff16021790555050565b60078054600181600116156101000203166002900480601f016020809104026020016040519081016040528092919081815260200182805460018160011615610100020316600290048015612db35780601f10612d8857610100808354040283529160200191612db3565b820191906000526020600020905b815481529060010190602001808311612d9657829003601f168201915b505050505081565b612dc361533d565b80600260006101000a81548173ffffffffffffffffffffffffffffffffffffffff021916908373ffffffffffffffffffffffffffffffffffffffff1602179055507ffc80377ca9c49cc11ae6982f390a42db976d5530af7c43889264b13fbbd7c57e81604051612e3391906186b7565b60405180910390a150565b6000806000612e4b614ebc565b600460009054906101000a900473ffffffffffffffffffffffffffffffffffffffff16612e7781615152565b612e7f615468565b73ffffffffffffffffffffffffffffffffffffffff16631b16802c600460009054906101000a900473ffffffffffffffffffffffffffffffffffffffff16876040518363ffffffff1660e01b8152600401612edb929190618838565b606060405180830381600087803b158015612ef557600080fd5b505af1158015612f09573d6000803e3d6000fd5b505050506040513d601f19601f82011682018060405250612f2d9190810190617753565b935093509350509193909250565b612f43614ebc565b60008311612f86576040517f08c379a0000000000000000000000000000000000000000000000000000000008152600401612f7d906190bc565b60405180910390fd5b6000612f906152d2565b73ffffffffffffffffffffffffffffffffffffffff16638d542eb3600460009054906101000a900473ffffffffffffffffffffffffffffffffffffffff16600560009054906101000a900473ffffffffffffffffffffffffffffffffffffffff1673ffffffffffffffffffffffffffffffffffffffff166370a08231600460009054906101000a900473ffffffffffffffffffffffffffffffffffffffff166040518263ffffffff1660e01b815260040161304b919061869c565b60206040518083038186803b15801561306357600080fd5b505afa158015613077573d6000803e3d6000fd5b505050506040513d601f19601f8201168201806040525061309b9190810190617663565b6040518363ffffffff1660e01b81526004016130b892919061895a565b604080518083038186803b1580156130cf57600080fd5b505afa1580156130e3573d6000803e3d6000fd5b505050506040513d601f19601f82011682018060405250613107919081019061768c565b5090508381101561314d576040517f08c379a000000000000000000000000000000000000000000000000000000000815260040161314490618e3c565b60405180910390fd5b613155615dbe565b73ffffffffffffffffffffffffffffffffffffffff1663962438036040518163ffffffff1660e01b815260040160206040518083038186803b15801561319a57600080fd5b505afa1580156131ae573d6000803e3d6000fd5b505050506040513d601f19601f820116820180604052506131d29190810190617663565b341015613214576040517f08c379a000000000000000000000000000000000000000000000000000000000815260040161320b90618ffc565b60405180910390fd5b600e60009054906101000a900473ffffffffffffffffffffffffffffffffffffffff1673ffffffffffffffffffffffffffffffffffffffff166108fc349081150290604051600060405180830381858888f1935050505015801561327c573d6000803e3d6000fd5b506132a9600460009054906101000a900473ffffffffffffffffffffffffffffffffffffffff1685615dee565b6132e8576040517f08c379a00000000000000000000000000000000000000000000000000000000081526004016132df90618f3c565b60405180910390fd5b600f60009054906101000a900473ffffffffffffffffffffffffffffffffffffffff1673ffffffffffffffffffffffffffffffffffffffff166362f0c06b600460009054906101000a900473ffffffffffffffffffffffffffffffffffffffff168686866040518563ffffffff1660e01b815260040161336b94939291906189ba565b600060405180830381600087803b15801561338557600080fd5b505af1158015613399573d6000803e3d6000fd5b5050505050505050565b600360009054906101000a900473ffffffffffffffffffffffffffffffffffffffff1681565b60006133d36152d2565b73ffffffffffffffffffffffffffffffffffffffff16639df95f9f836040518263ffffffff1660e01b815260040161340b919061911c565b60206040518083038186803b15801561342357600080fd5b505afa158015613437573d6000803e3d6000fd5b505050506040513d601f19601f8201168201806040525061345b91908101906175e8565b9050919050565b61346a615f51565b80600560006101000a81548173ffffffffffffffffffffffffffffffffffffffff021916908373ffffffffffffffffffffffffffffffffffffffff1602179055506134b481616151565b50565b60006134c16152d2565b73ffffffffffffffffffffffffffffffffffffffff1663a311c7c2836040518263ffffffff1660e01b81526004016134f9919061869c565b60206040518083038186803b15801561351157600080fd5b505afa158015613525573d6000803e3d6000fd5b505050506040513d601f19601f820116820180604052506135499190810190617663565b9050919050565b61355861533d565b600073ffffffffffffffffffffffffffffffffffffffff168173ffffffffffffffffffffffffffffffffffffffff1614156135c8576040517f08c379a00000000000000000000000000000000000000000000000000000000081526004016135bf90618ebc565b60405180910390fd5b80600b60006101000a81548173ffffffffffffffffffffffffffffffffffffffff021916908373ffffffffffffffffffffffffffffffffffffffff16021790555050565b60006136166152d2565b73ffffffffffffffffffffffffffffffffffffffff1663a5fdc5de836040518263ffffffff1660e01b815260040161364e919061869c565b60206040518083038186803b15801561366657600080fd5b505afa15801561367a573d6000803e3d6000fd5b505050506040513d601f19601f8201168201806040525061369e9190810190617663565b9050919050565b60006136af614ebc565b6136b7615498565b600460009054906101000a900473ffffffffffffffffffffffffffffffffffffffff166136e381615152565b61370f600460009054906101000a900473ffffffffffffffffffffffffffffffffffffffff16846154ff565b5061373d600460009054906101000a900473ffffffffffffffffffffffffffffffffffffffff168585616220565b50600191505092915050565b6137516153ce565b600260009054906101000a900473ffffffffffffffffffffffffffffffffffffffff1673ffffffffffffffffffffffffffffffffffffffff1663907dff9783836040516020016137a2929190618b02565b60405160208183030381529060405260026040516137bf906185a8565b60405180910390206137d088615445565b6000806040518763ffffffff1660e01b81526004016137f496959493929190618be6565b600060405180830381600087803b15801561380e57600080fd5b505af1158015613822573d6000803e3d6000fd5b50505050505050565b613833614ebc565b6060600f60009054906101000a900473ffffffffffffffffffffffffffffffffffffffff1673ffffffffffffffffffffffffffffffffffffffff16630a2da178600460009054906101000a900473ffffffffffffffffffffffffffffffffffffffff166040518263ffffffff1660e01b81526004016138b2919061869c565b60006040518083038186803b1580156138ca57600080fd5b505afa1580156138de573d6000803e3d6000fd5b505050506040513d6000823e3d601f19601f820116820180604052506139079190810190617378565b9050600081511161394d576040517f08c379a00000000000000000000000000000000000000000000000000000000081526004016139449061903c565b60405180910390fd5b613955615dbe565b73ffffffffffffffffffffffffffffffffffffffff166387c24d346040518163ffffffff1660e01b815260040160206040518083038186803b15801561399a57600080fd5b505afa1580156139ae573d6000803e3d6000fd5b505050506040513d601f19601f820116820180604052506139d29190810190617663565b341015613a14576040517f08c379a0000000000000000000000000000000000000000000000000000000008152600401613a0b90618ffc565b60405180910390fd5b600e60009054906101000a900473ffffffffffffffffffffffffffffffffffffffff1673ffffffffffffffffffffffffffffffffffffffff166108fc349081150290604051600060405180830381858888f19350505050158015613a7c573d6000803e3d6000fd5b5060008090505b8151811015613ab657613aa8828281518110613a9b57fe5b6020026020010151616236565b508080600101915050613a83565b5050565b6000613ac46150eb565b600d60009054906101000a900473ffffffffffffffffffffffffffffffffffffffff1673ffffffffffffffffffffffffffffffffffffffff163373ffffffffffffffffffffffffffffffffffffffff1614613b54576040517f08c379a0000000000000000000000000000000000000000000000000000000008152600401613b4b90618f9c565b60405180910390fd5b8173__$b8d33eeb36ac0d1e81cd70156e0043e778$__63907af6c06040518163ffffffff1660e01b815260040160206040518083038186803b158015613b9957600080fd5b505af4158015613bad573d6000803e3d6000fd5b505050506040513d601f19601f82011682018060405250613bd19190810190617663565b1015613c12576040517f08c379a0000000000000000000000000000000000000000000000000000000008152600401613c0990618f5c565b60405180910390fd5b600073ffffffffffffffffffffffffffffffffffffffff16613c32616462565b73ffffffffffffffffffffffffffffffffffffffff161415613c89576040517f08c379a0000000000000000000000000000000000000000000000000000000008152600401613c8090618f1c565b60405180910390fd5b6000613c93616492565b90506000613c9f616462565b9050600069021e19e0c9bab24000009050613cc385826164c290919063ffffffff16565b905060008111613d08576040517f08c379a0000000000000000000000000000000000000000000000000000000008152600401613cff9061907c565b60405180910390fd5b8273ffffffffffffffffffffffffffffffffffffffff16637e7961d7826040518263ffffffff1660e01b8152600401613d41919061911c565b602060405180830381600087803b158015613d5b57600080fd5b505af1158015613d6f573d6000803e3d6000fd5b505050506040513d601f19601f82011682018060405250613d9391908101906173b9565b5060008373ffffffffffffffffffffffffffffffffffffffff16639bdd7ac76040518163ffffffff1660e01b815260040160206040518083038186803b158015613ddc57600080fd5b505afa158015613df0573d6000803e3d6000fd5b505050506040513d601f19601f82011682018060405250613e149190810190617663565b90506000613e2b82846164ef90919063ffffffff16565b9050600560009054906101000a900473ffffffffffffffffffffffffffffffffffffffff1673ffffffffffffffffffffffffffffffffffffffff1663b46310f685613f2984600560009054906101000a900473ffffffffffffffffffffffffffffffffffffffff1673ffffffffffffffffffffffffffffffffffffffff166370a082318a6040518263ffffffff1660e01b8152600401613ecb919061869c565b60206040518083038186803b158015613ee357600080fd5b505afa158015613ef7573d6000803e3d6000fd5b505050506040513d601f19601f82011682018060405250613f1b9190810190617663565b615a2290919063ffffffff16565b6040518363ffffffff1660e01b8152600401613f4692919061895a565b600060405180830381600087803b158015613f6057600080fd5b505af1158015613f74573d6000803e3d6000fd5b50505050613f83308583615a77565b8373ffffffffffffffffffffffffffffffffffffffff166359974e38826040518263ffffffff1660e01b8152600401613fbc919061911c565b602060405180830381600087803b158015613fd657600080fd5b505af1158015613fea573d6000803e3d6000fd5b505050506040513d601f19601f8201168201806040525061400e91908101906173b9565b50600560009054906101000a900473ffffffffffffffffffffffffffffffffffffffff1673ffffffffffffffffffffffffffffffffffffffff1663b46310f63361410b85600560009054906101000a900473ffffffffffffffffffffffffffffffffffffffff1673ffffffffffffffffffffffffffffffffffffffff166370a08231336040518263ffffffff1660e01b81526004016140ad91906186b7565b60206040518083038186803b1580156140c557600080fd5b505afa1580156140d9573d6000803e3d6000fd5b505050506040513d601f19601f820116820180604052506140fd9190810190617663565b615a2290919063ffffffff16565b6040518363ffffffff1660e01b81526004016141289291906186ed565b600060405180830381600087803b15801561414257600080fd5b505af1158015614156573d6000803e3d6000fd5b50505050614165303384615a77565b61417a83600854615a2290919063ffffffff16565b600881905550600195505050505050919050565b614196616545565b80600460006101000a81548173ffffffffffffffffffffffffffffffffffffffff021916908373ffffffffffffffffffffffffffffffffffffffff16021790555050565b6000806141e56152d2565b73ffffffffffffffffffffffffffffffffffffffff1663becf5ff8846040518263ffffffff1660e01b815260040161421d919061869c565b604080518083038186803b15801561423457600080fd5b505afa158015614248573d6000803e3d6000fd5b505050506040513d601f19601f8201168201806040525061426c91908101906176c8565b8092508193505050915091565b6000838261428782826159ac565b61428f614ebc565b600460009054906101000a900473ffffffffffffffffffffffffffffffffffffffff166142bb81615152565b876142c581615152565b6142cd615468565b73ffffffffffffffffffffffffffffffffffffffff16636a1c47588a600460009054906101000a900473ffffffffffffffffffffffffffffffffffffffff168b8b8b6040518663ffffffff1660e01b815260040161432f95949392919061873f565b602060405180830381600087803b15801561434957600080fd5b505af115801561435d573d6000803e3d6000fd5b505050506040513d601f19601f820116820180604052506143819190810190617663565b945050505050949350505050565b60006143996152d2565b73ffffffffffffffffffffffffffffffffffffffff1663c9a2f3ad836040518263ffffffff1660e01b81526004016143d1919061869c565b60206040518083038186803b1580156143e957600080fd5b505afa1580156143fd573d6000803e3d6000fd5b505050506040513d601f19601f82011682018060405250614421919081019061740b565b9050919050565b60006144326152d2565b73ffffffffffffffffffffffffffffffffffffffff1663d37c4d8b84846040518363ffffffff1660e01b815260040161446c929190618838565b60206040518083038186803b15801561448457600080fd5b505afa158015614498573d6000803e3d6000fd5b505050506040513d601f19601f820116820180604052506144bc9190810190617663565b905092915050565b60006144ce6152d2565b73ffffffffffffffffffffffffffffffffffffffff1663f023e8db8360006040518363ffffffff1660e01b8152600401614509929190618a80565b604080518083038186803b15801561452057600080fd5b505afa158015614534573d6000803e3d6000fd5b505050506040513d601f19601f82011682018060405250614558919081019061768c565b5080915050919050565b600460009054906101000a900473ffffffffffffffffffffffffffffffffffffffff1681565b60006145926152d2565b73ffffffffffffffffffffffffffffffffffffffff1663f023e8db8360016040518363ffffffff1660e01b81526004016145cd929190618a80565b604080518083038186803b1580156145e457600080fd5b505afa1580156145f8573d6000803e3d6000fd5b505050506040513d601f19601f8201168201806040525061461c919081019061768c565b5080915050919050565b61462e615302565b50565b600061463b6152d2565b73ffffffffffffffffffffffffffffffffffffffff1663d99947de6040518163ffffffff1660e01b815260040160206040518083038186803b15801561468057600080fd5b505afa158015614694573d6000803e3d6000fd5b505050506040513d601f19601f820116820180604052506146b89190810190617663565b905090565b600b60009054906101000a900473ffffffffffffffffffffffffffffffffffffffff1681565b6000600560009054906101000a900473ffffffffffffffffffffffffffffffffffffffff1673ffffffffffffffffffffffffffffffffffffffff1663dd62ed3e84846040518363ffffffff1660e01b8152600401614742929190618716565b60206040518083038186803b15801561475a57600080fd5b505afa15801561476e573d6000803e3d6000fd5b505050506040513d601f19601f820116820180604052506147929190810190617663565b905092915050565b6147a26153ce565b600260009054906101000a900473ffffffffffffffffffffffffffffffffffffffff1673ffffffffffffffffffffffffffffffffffffffff1663907dff9783836040516020016147f3929190618b02565b604051602081830303815290604052600260405161481090618622565b6040518091039020876000806040518763ffffffff1660e01b815260040161483d96959493929190618be6565b600060405180830381600087803b15801561485757600080fd5b505af115801561486b573d6000803e3d6000fd5b50505050505050565b61487c61533d565b80600d60006101000a81548173ffffffffffffffffffffffffffffffffffffffff021916908373ffffffffffffffffffffffffffffffffffffffff16021790555050565b600e60009054906101000a900473ffffffffffffffffffffffffffffffffffffffff1681565b60006148f06152d2565b73ffffffffffffffffffffffffffffffffffffffff16638d542eb383600560009054906101000a900473ffffffffffffffffffffffffffffffffffffffff1673ffffffffffffffffffffffffffffffffffffffff166370a08231866040518263ffffffff1660e01b8152600401614967919061869c565b60206040518083038186803b15801561497f57600080fd5b505afa158015614993573d6000803e3d6000fd5b505050506040513d601f19601f820116820180604052506149b79190810190617663565b6040518363ffffffff1660e01b81526004016149d492919061895a565b604080518083038186803b1580156149eb57600080fd5b505afa1580156149ff573d6000803e3d6000fd5b505050506040513d601f19601f82011682018060405250614a23919081019061768c565b5080915050919050565b6000614a37615498565b614a3f614ebc565b600460009054906101000a900473ffffffffffffffffffffffffffffffffffffffff16614a6b81615152565b600080614a766152d2565b73ffffffffffffffffffffffffffffffffffffffff1663a63c4df48787600460009054906101000a900473ffffffffffffffffffffffffffffffffffffffff166040518463ffffffff1660e01b8152600401614ad493929190618983565b6040805180830381600087803b158015614aed57600080fd5b505af1158015614b01573d6000803e3d6000fd5b505050506040513d601f19601f82011682018060405250614b2591908101906176c8565b91509150614b57868383600460009054906101000a900473ffffffffffffffffffffffffffffffffffffffff1661662f565b614b8486600460009054906101000a900473ffffffffffffffffffffffffffffffffffffffff1684616220565b935050505092915050565b600560009054906101000a900473ffffffffffffffffffffffffffffffffffffffff1681565b614bbd6150eb565b614bc5614ebc565b600460009054906101000a900473ffffffffffffffffffffffffffffffffffffffff16614bf181615152565b614bf96152d2565b73ffffffffffffffffffffffffffffffffffffffff1663b42652e9600460009054906101000a900473ffffffffffffffffffffffffffffffffffffffff166040518263ffffffff1660e01b8152600401614c53919061869c565b600060405180830381600087803b158015614c6d57600080fd5b505af1158015614c81573d6000803e3d6000fd5b5050505050565b600260009054906101000a900473ffffffffffffffffffffffffffffffffffffffff1681565b614cb6615302565b5050565b60008382614cc882826159ac565b614cd0614ebc565b600460009054906101000a900473ffffffffffffffffffffffffffffffffffffffff16614cfc81615152565b614d04615468565b73ffffffffffffffffffffffffffffffffffffffff16630a1e187d600460009054906101000a900473ffffffffffffffffffffffffffffffffffffffff16898989600460009054906101000a900473ffffffffffffffffffffffffffffffffffffffff166040518663ffffffff1660e01b8152600401614d88959493929190618898565b602060405180830381600087803b158015614da257600080fd5b505af1158015614db6573d6000803e3d6000fd5b505050506040513d601f19601f82011682018060405250614dda9190810190617663565b93505050509392505050565b600c60009054906101000a900473ffffffffffffffffffffffffffffffffffffffff1681565b6000614e166152d2565b73ffffffffffffffffffffffffffffffffffffffff1663f5adc4f56040518163ffffffff1660e01b815260040160206040518083038186803b158015614e5b57600080fd5b505afa158015614e6f573d6000803e3d6000fd5b505050506040513d601f19601f82011682018060405250614e9391908101906173b9565b905090565b7f705553440000000000000000000000000000000000000000000000000000000081565b600260009054906101000a900473ffffffffffffffffffffffffffffffffffffffff1673ffffffffffffffffffffffffffffffffffffffff163373ffffffffffffffffffffffffffffffffffffffff1614158015614f685750600360009054906101000a900473ffffffffffffffffffffffffffffffffffffffff1673ffffffffffffffffffffffffffffffffffffffff163373ffffffffffffffffffffffffffffffffffffffff1614155b8015614fc257503373ffffffffffffffffffffffffffffffffffffffff16600460009054906101000a900473ffffffffffffffffffffffffffffffffffffffff1673ffffffffffffffffffffffffffffffffffffffff1614155b156150095733600460006101000a81548173ffffffffffffffffffffffffffffffffffffffff021916908373ffffffffffffffffffffffffffffffffffffffff1602179055505b565b600260009054906101000a900473ffffffffffffffffffffffffffffffffffffffff1673ffffffffffffffffffffffffffffffffffffffff1663907dff978260405160200161505a919061911c565b6040516020818303038152906040526003604051615077906185f8565b604051809103902061508888615445565b61509188615445565b60006040518763ffffffff1660e01b81526004016150b496959493929190618c4e565b600060405180830381600087803b1580156150ce57600080fd5b505af11580156150e2573d6000803e3d6000fd5b50505050505050565b6150f361670c565b73ffffffffffffffffffffffffffffffffffffffff16637c3125416040518163ffffffff1660e01b815260040160006040518083038186803b15801561513857600080fd5b505afa15801561514c573d6000803e3d6000fd5b50505050565b600073ffffffffffffffffffffffffffffffffffffffff16600b60009054906101000a900473ffffffffffffffffffffffffffffffffffffffff1673ffffffffffffffffffffffffffffffffffffffff1614156151e4576040517f08c379a00000000000000000000000000000000000000000000000000000000081526004016151db906190fc565b60405180910390fd5b600b60009054906101000a900473ffffffffffffffffffffffffffffffffffffffff1673ffffffffffffffffffffffffffffffffffffffff1663cb2505cf826040518263ffffffff1660e01b815260040161523f919061869c565b60206040518083038186803b15801561525757600080fd5b505afa15801561526b573d6000803e3d6000fd5b505050506040513d601f19601f8201168201806040525061528f91908101906173b9565b156152cf576040517f08c379a00000000000000000000000000000000000000000000000000000000081526004016152c69061901c565b60405180910390fd5b50565b60006152fd7f49737375657200000000000000000000000000000000000000000000000000006158d7565b905090565b6040517f08c379a000000000000000000000000000000000000000000000000000000000815260040161533490618edc565b60405180910390fd5b6000809054906101000a900473ffffffffffffffffffffffffffffffffffffffff1673ffffffffffffffffffffffffffffffffffffffff163373ffffffffffffffffffffffffffffffffffffffff16146153cc576040517f08c379a00000000000000000000000000000000000000000000000000000000081526004016153c390618f7c565b60405180910390fd5b565b6153d6615468565b73ffffffffffffffffffffffffffffffffffffffff163373ffffffffffffffffffffffffffffffffffffffff1614615443576040517f08c379a000000000000000000000000000000000000000000000000000000000815260040161543a90618dfc565b60405180910390fd5b565b60008173ffffffffffffffffffffffffffffffffffffffff1660001b9050919050565b60006154937f45786368616e67657200000000000000000000000000000000000000000000006158d7565b905090565b6154a061670c565b73ffffffffffffffffffffffffffffffffffffffff1663086dabd16040518163ffffffff1660e01b815260040160006040518083038186803b1580156154e557600080fd5b505afa1580156154f9573d6000803e3d6000fd5b50505050565b60008061550a61673c565b73ffffffffffffffffffffffffffffffffffffffff16638b3f8088856040518263ffffffff1660e01b8152600401615542919061869c565b604080518083038186803b15801561555957600080fd5b505afa15801561556d573d6000803e3d6000fd5b505050506040513d601f19601f8201168201806040525061559191908101906176c8565b5090506000811115615766576000806155a86152d2565b73ffffffffffffffffffffffffffffffffffffffff16638d542eb387600560009054906101000a900473ffffffffffffffffffffffffffffffffffffffff1673ffffffffffffffffffffffffffffffffffffffff166370a082318a6040518263ffffffff1660e01b815260040161561f919061869c565b60206040518083038186803b15801561563757600080fd5b505afa15801561564b573d6000803e3d6000fd5b505050506040513d601f19601f8201168201806040525061566f9190810190617663565b6040518363ffffffff1660e01b815260040161568c92919061895a565b604080518083038186803b1580156156a357600080fd5b505afa1580156156b7573d6000803e3d6000fd5b505050506040513d601f19601f820116820180604052506156db919081019061768c565b9150915081851115615722576040517f08c379a00000000000000000000000000000000000000000000000000000000081526004016157199061909c565b60405180910390fd5b8015615763576040517f08c379a000000000000000000000000000000000000000000000000000000000815260040161575a90618fbc565b60405180910390fd5b50505b600191505092915050565b6000600560009054906101000a900473ffffffffffffffffffffffffffffffffffffffff1673ffffffffffffffffffffffffffffffffffffffff1663da46098c858761587286600560009054906101000a900473ffffffffffffffffffffffffffffffffffffffff1673ffffffffffffffffffffffffffffffffffffffff1663dd62ed3e8b8d6040518363ffffffff1660e01b8152600401615814929190618716565b60206040518083038186803b15801561582c57600080fd5b505afa158015615840573d6000803e3d6000fd5b505050506040513d601f19601f820116820180604052506158649190810190617663565b6164ef90919063ffffffff16565b6040518463ffffffff1660e01b815260040161589093929190618801565b600060405180830381600087803b1580156158aa57600080fd5b505af11580156158be573d6000803e3d6000fd5b505050506158cd84848461676c565b9050949350505050565b600080600a600084815260200190815260200160002060009054906101000a900473ffffffffffffffffffffffffffffffffffffffff169050600073ffffffffffffffffffffffffffffffffffffffff168173ffffffffffffffffffffffffffffffffffffffff1614158360405160200161595291906185d2565b604051602081830303815290604052906159a2576040517f08c379a00000000000000000000000000000000000000000000000000000000081526004016159999190618d7a565b60405180910390fd5b5080915050919050565b6159b461670c565b73ffffffffffffffffffffffffffffffffffffffff16632cb28bd883836040518363ffffffff1660e01b81526004016159ee929190618aa9565b60006040518083038186803b158015615a0657600080fd5b505afa158015615a1a573d6000803e3d6000fd5b505050505050565b600080828401905083811015615a6d576040517f08c379a0000000000000000000000000000000000000000000000000000000008152600401615a6490618e7c565b60405180910390fd5b8091505092915050565b600260009054906101000a900473ffffffffffffffffffffffffffffffffffffffff1673ffffffffffffffffffffffffffffffffffffffff1663907dff9782604051602001615ac6919061911c565b6040516020818303038152906040526003604051615ae390618687565b6040518091039020615af488615445565b615afd88615445565b60006040518763ffffffff1660e01b8152600401615b2096959493929190618c4e565b600060405180830381600087803b158015615b3a57600080fd5b505af1158015615b4e573d6000803e3d6000fd5b50505050505050565b60606006604051908082528060200260200182016040528015615b895781602001602082028038833980820191505090505b5090507f5065726946696e616e636553746174650000000000000000000000000000000081600081518110615bba57fe5b6020026020010181815250507f53797374656d537461747573000000000000000000000000000000000000000081600181518110615bf457fe5b6020026020010181815250507f45786368616e676572000000000000000000000000000000000000000000000081600281518110615c2e57fe5b6020026020010181815250507f497373756572000000000000000000000000000000000000000000000000000081600381518110615c6857fe5b6020026020010181815250507f52657761726473446973747269627574696f6e0000000000000000000000000081600481518110615ca257fe5b6020026020010181815250507f53797374656d53657474696e677300000000000000000000000000000000000081600581518110615cdc57fe5b60200260200101818152505090565b60608151835101604051908082528060200260200182016040528015615d205781602001602082028038833980820191505090505b50905060008090505b8351811015615d6b57838181518110615d3e57fe5b6020026020010151828281518110615d5257fe5b6020026020010181815250508080600101915050615d29565b5060008090505b8251811015615db757828181518110615d8757fe5b6020026020010151828286510181518110615d9e57fe5b6020026020010181815250508080600101915050615d72565b5092915050565b6000615de97f53797374656d53657474696e67730000000000000000000000000000000000006158d7565b905090565b6000600560009054906101000a900473ffffffffffffffffffffffffffffffffffffffff1673ffffffffffffffffffffffffffffffffffffffff1663b46310f684615eec85600560009054906101000a900473ffffffffffffffffffffffffffffffffffffffff1673ffffffffffffffffffffffffffffffffffffffff166370a08231896040518263ffffffff1660e01b8152600401615e8e919061869c565b60206040518083038186803b158015615ea657600080fd5b505afa158015615eba573d6000803e3d6000fd5b505050506040513d601f19601f82011682018060405250615ede9190810190617663565b6164ef90919063ffffffff16565b6040518363ffffffff1660e01b8152600401615f0992919061895a565b600060405180830381600087803b158015615f2357600080fd5b505af1158015615f37573d6000803e3d6000fd5b50505050615f4783600084615a77565b6001905092915050565b600260009054906101000a900473ffffffffffffffffffffffffffffffffffffffff1673ffffffffffffffffffffffffffffffffffffffff163373ffffffffffffffffffffffffffffffffffffffff1614158015615ffd5750600360009054906101000a900473ffffffffffffffffffffffffffffffffffffffff1673ffffffffffffffffffffffffffffffffffffffff163373ffffffffffffffffffffffffffffffffffffffff1614155b801561605757503373ffffffffffffffffffffffffffffffffffffffff16600460009054906101000a900473ffffffffffffffffffffffffffffffffffffffff1673ffffffffffffffffffffffffffffffffffffffff1614155b1561609e5733600460006101000a81548173ffffffffffffffffffffffffffffffffffffffff021916908373ffffffffffffffffffffffffffffffffffffffff1602179055505b6000809054906101000a900473ffffffffffffffffffffffffffffffffffffffff1673ffffffffffffffffffffffffffffffffffffffff16600460009054906101000a900473ffffffffffffffffffffffffffffffffffffffff1673ffffffffffffffffffffffffffffffffffffffff161461614f576040517f08c379a000000000000000000000000000000000000000000000000000000000815260040161614690618ddc565b60405180910390fd5b565b600260009054906101000a900473ffffffffffffffffffffffffffffffffffffffff1673ffffffffffffffffffffffffffffffffffffffff1663907dff97826040516020016161a0919061869c565b60405160208183030381529060405260016040516161bd90618637565b604051809103902060008060006040518763ffffffff1660e01b81526004016161eb96959493929190618b7e565b600060405180830381600087803b15801561620557600080fd5b505af1158015616219573d6000803e3d6000fd5b5050505050565b600061622d84848461676c565b90509392505050565b6000806000600f60009054906101000a900473ffffffffffffffffffffffffffffffffffffffff1673ffffffffffffffffffffffffffffffffffffffff16631e1d164f856040518263ffffffff1660e01b8152600401616296919061911c565b6101006040518083038186803b1580156162af57600080fd5b505afa1580156162c3573d6000803e3d6000fd5b505050506040513d601f19601f820116820180604052506162e791908101906172ad565b5050505091509150600460009054906101000a900473ffffffffffffffffffffffffffffffffffffffff1673ffffffffffffffffffffffffffffffffffffffff168273ffffffffffffffffffffffffffffffffffffffff161461637f576040517f08c379a00000000000000000000000000000000000000000000000000000000081526004016163769061905c565b60405180910390fd5b600f60009054906101000a900473ffffffffffffffffffffffffffffffffffffffff1673ffffffffffffffffffffffffffffffffffffffff1663909f018a85836040518363ffffffff1660e01b81526004016163dc929190619160565b600060405180830381600087803b1580156163f657600080fd5b505af115801561640a573d6000803e3d6000fd5b505050506164188282616b1b565b616457576040517f08c379a000000000000000000000000000000000000000000000000000000000815260040161644e90618e5c565b60405180910390fd5b600192505050919050565b600061648d7f52657761726473446973747269627574696f6e000000000000000000000000006158d7565b905090565b60006164bd7f537570706c795363686564756c650000000000000000000000000000000000006158d7565b905090565b6000601260ff16600a0a6164df8385616c7e90919063ffffffff16565b816164e657fe5b04905092915050565b600082821115616534576040517f08c379a000000000000000000000000000000000000000000000000000000000815260040161652b90618e9c565b60405180910390fd5b600082840390508091505092915050565b600260009054906101000a900473ffffffffffffffffffffffffffffffffffffffff1673ffffffffffffffffffffffffffffffffffffffff163373ffffffffffffffffffffffffffffffffffffffff1614806165ee5750600360009054906101000a900473ffffffffffffffffffffffffffffffffffffffff1673ffffffffffffffffffffffffffffffffffffffff163373ffffffffffffffffffffffffffffffffffffffff16145b61662d576040517f08c379a0000000000000000000000000000000000000000000000000000000008152600401616624906190dc565b60405180910390fd5b565b600260009054906101000a900473ffffffffffffffffffffffffffffffffffffffff1673ffffffffffffffffffffffffffffffffffffffff1663907dff9784848460405160200161668293929190619189565b604051602081830303815290604052600260405161669f9061864c565b60405180910390206166b089615445565b6000806040518763ffffffff1660e01b81526004016166d496959493929190618be6565b600060405180830381600087803b1580156166ee57600080fd5b505af1158015616702573d6000803e3d6000fd5b5050505050505050565b60006167377f53797374656d53746174757300000000000000000000000000000000000000006158d7565b905090565b60006167677f5065726946696e616e63655374617465000000000000000000000000000000006158d7565b905090565b60008073ffffffffffffffffffffffffffffffffffffffff168373ffffffffffffffffffffffffffffffffffffffff16141580156167d657503073ffffffffffffffffffffffffffffffffffffffff168373ffffffffffffffffffffffffffffffffffffffff1614155b80156168305750600260009054906101000a900473ffffffffffffffffffffffffffffffffffffffff1673ffffffffffffffffffffffffffffffffffffffff168373ffffffffffffffffffffffffffffffffffffffff1614155b61686f576040517f08c379a000000000000000000000000000000000000000000000000000000000815260040161686690618d9c565b60405180910390fd5b600560009054906101000a900473ffffffffffffffffffffffffffffffffffffffff1673ffffffffffffffffffffffffffffffffffffffff1663b46310f68561696b85600560009054906101000a900473ffffffffffffffffffffffffffffffffffffffff1673ffffffffffffffffffffffffffffffffffffffff166370a082318a6040518263ffffffff1660e01b815260040161690d919061869c565b60206040518083038186803b15801561692557600080fd5b505afa158015616939573d6000803e3d6000fd5b505050506040513d601f19601f8201168201806040525061695d9190810190617663565b6164ef90919063ffffffff16565b6040518363ffffffff1660e01b815260040161698892919061895a565b600060405180830381600087803b1580156169a257600080fd5b505af11580156169b6573d6000803e3d6000fd5b50505050600560009054906101000a900473ffffffffffffffffffffffffffffffffffffffff1673ffffffffffffffffffffffffffffffffffffffff1663b46310f684616ab685600560009054906101000a900473ffffffffffffffffffffffffffffffffffffffff1673ffffffffffffffffffffffffffffffffffffffff166370a08231896040518263ffffffff1660e01b8152600401616a58919061869c565b60206040518083038186803b158015616a7057600080fd5b505afa158015616a84573d6000803e3d6000fd5b505050506040513d601f19601f82011682018060405250616aa89190810190617663565b615a2290919063ffffffff16565b6040518363ffffffff1660e01b8152600401616ad392919061895a565b600060405180830381600087803b158015616aed57600080fd5b505af1158015616b01573d6000803e3d6000fd5b50505050616b10848484615a77565b600190509392505050565b6000600560009054906101000a900473ffffffffffffffffffffffffffffffffffffffff1673ffffffffffffffffffffffffffffffffffffffff1663b46310f684616c1985600560009054906101000a900473ffffffffffffffffffffffffffffffffffffffff1673ffffffffffffffffffffffffffffffffffffffff166370a08231896040518263ffffffff1660e01b8152600401616bbb919061869c565b60206040518083038186803b158015616bd357600080fd5b505afa158015616be7573d6000803e3d6000fd5b505050506040513d601f19601f82011682018060405250616c0b9190810190617663565b615a2290919063ffffffff16565b6040518363ffffffff1660e01b8152600401616c3692919061895a565b600060405180830381600087803b158015616c5057600080fd5b505af1158015616c64573d6000803e3d6000fd5b50505050616c7460008484615a77565b6001905092915050565b600080831415616c915760009050616ce8565b6000828402905082848281616ca257fe5b0414616ce3576040517f08c379a0000000000000000000000000000000000000000000000000000000008152600401616cda90618fdc565b60405180910390fd5b809150505b92915050565b600081359050616cfd816195c0565b92915050565b600081519050616d12816195c0565b92915050565b600081359050616d27816195d7565b92915050565b600082601f830112616d3e57600080fd5b8151616d51616d4c8261923f565b619212565b91508181835260208401935060208101905083856020840282011115616d7657600080fd5b60005b83811015616da65781616d8c8882616e5d565b845260208401935060208301925050600181019050616d79565b5050505092915050565b600082601f830112616dc157600080fd5b8151616dd4616dcf82619267565b619212565b91508181835260208401935060208101905083856020840282011115616df957600080fd5b60005b83811015616e295781616e0f8882616f2c565b845260208401935060208301925050600181019050616dfc565b5050505092915050565b600081519050616e42816195ee565b92915050565b600081359050616e5781619605565b92915050565b600081519050616e6c81619605565b92915050565b600081519050616e818161961c565b92915050565b600081359050616e9681619633565b92915050565b600060608284031215616eae57600080fd5b81905092915050565b600060608284031215616ec957600080fd5b616ed36060619212565b90506000616ee384828501616e5d565b6000830152506020616ef784828501616e5d565b6020830152506040616f0b84828501616f56565b60408301525092915050565b600081359050616f268161964a565b92915050565b600081519050616f3b8161964a565b92915050565b600081359050616f5081619661565b92915050565b600081519050616f6581619661565b92915050565b600060208284031215616f7d57600080fd5b6000616f8b84828501616cee565b91505092915050565b600060208284031215616fa657600080fd5b6000616fb484828501616d03565b91505092915050565b600060208284031215616fcf57600080fd5b6000616fdd84828501616d18565b91505092915050565b60008060408385031215616ff957600080fd5b600061700785828601616cee565b925050602061701885828601616cee565b9150509250929050565b60008060006060848603121561703757600080fd5b600061704586828701616cee565b935050602061705686828701616cee565b925050604061706786828701616f17565b9150509250925092565b6000806040838503121561708457600080fd5b600061709285828601616cee565b92505060206170a385828601616e48565b9150509250929050565b6000806000606084860312156170c257600080fd5b60006170d086828701616cee565b93505060206170e186828701616e48565b92505060406170f286828701616f17565b9150509250925092565b6000806000806080858703121561711257600080fd5b600061712087828801616cee565b945050602061713187828801616e48565b935050604061714287828801616f17565b925050606061715387828801616e48565b91505092959194509250565b60008060008060008060c0878903121561717857600080fd5b600061718689828a01616cee565b965050602061719789828a01616e48565b95505060406171a889828a01616f17565b94505060606171b989828a01616e48565b93505060806171ca89828a01616cee565b92505060a06171db89828a01616e48565b9150509295509295509295565b60008060008060008060c0878903121561720157600080fd5b600061720f89828a01616cee565b965050602061722089828a01616e48565b955050604061723189828a01616f17565b945050606061724289828a01616e48565b935050608061725389828a01616f17565b92505060a061726489828a01616cee565b9150509295509295509295565b6000806040838503121561728457600080fd5b600061729285828601616cee565b92505060206172a385828601616f17565b9150509250929050565b60008060008060008061010087890312156172c757600080fd5b60006172d589828a01616d03565b96505060206172e689828a01616f2c565b95505060406172f789828a01616f2c565b945050606061730889828a01616f2c565b935050608061731989828a01616e33565b92505060a061732a89828a01616eb7565b9150509295509295509295565b60006020828403121561734957600080fd5b600082015167ffffffffffffffff81111561736357600080fd5b61736f84828501616d2d565b91505092915050565b60006020828403121561738a57600080fd5b600082015167ffffffffffffffff8111156173a457600080fd5b6173b084828501616db0565b91505092915050565b6000602082840312156173cb57600080fd5b60006173d984828501616e33565b91505092915050565b6000602082840312156173f457600080fd5b600061740284828501616e48565b91505092915050565b60006020828403121561741d57600080fd5b600061742b84828501616e5d565b91505092915050565b60008060006060848603121561744957600080fd5b600061745786828701616e48565b935050602061746886828701616e48565b925050604061747986828701616f17565b9150509250925092565b6000806040838503121561749657600080fd5b60006174a485828601616e48565b92505060206174b585828601616f17565b9150509250929050565b6000806000606084860312156174d457600080fd5b60006174e286828701616e48565b93505060206174f386828701616f17565b925050604061750486828701616e48565b9150509250925092565b600080600080600060a0868803121561752657600080fd5b600061753488828901616e48565b955050602061754588828901616f17565b945050604061755688828901616e48565b935050606061756788828901616cee565b925050608061757888828901616e48565b9150509295509295909350565b6000806000806080858703121561759b57600080fd5b60006175a987828801616e48565b94505060206175ba87828801616f17565b93505060406175cb87828801616e48565b92505060606175dc87828801616e48565b91505092959194509250565b6000602082840312156175fa57600080fd5b600061760884828501616e72565b91505092915050565b60006020828403121561762357600080fd5b600061763184828501616e87565b91505092915050565b60006020828403121561764c57600080fd5b600061765a84828501616f17565b91505092915050565b60006020828403121561767557600080fd5b600061768384828501616f2c565b91505092915050565b6000806040838503121561769f57600080fd5b60006176ad85828601616f2c565b92505060206176be85828601616e33565b9150509250929050565b600080604083850312156176db57600080fd5b60006176e985828601616f2c565b92505060206176fa85828601616f2c565b9150509250929050565b600080600060a0848603121561771957600080fd5b600061772786828701616f17565b935050602061773886828701616f17565b925050604061774986828701616e9c565b9150509250925092565b60008060006060848603121561776857600080fd5b600061777686828701616f2c565b935050602061778786828701616f2c565b925050604061779886828701616f2c565b9150509250925092565b60006177ae8383617854565b60208301905092915050565b6177c3816193e3565b82525050565b6177d281619356565b82525050565b6177e181619344565b82525050565b60006177f28261929f565b6177fc81856192d8565b93506178078361928f565b8060005b8381101561783857815161781f88826177a2565b975061782a836192cb565b92505060018101905061780b565b5085935050505092915050565b61784e81619368565b82525050565b61785d81619374565b82525050565b61786c81619374565b82525050565b61788361787e82619374565b619598565b82525050565b6000617894826192aa565b61789e81856192e9565b93506178ae818560208601619565565b6178b7816195a2565b840191505092915050565b6178cb816193f5565b82525050565b6178da81619419565b82525050565b6178e98161943d565b82525050565b6178f881619461565b82525050565b61790781619485565b82525050565b617916816194a9565b82525050565b617925816194cd565b82525050565b617934816194f1565b82525050565b6179438161950b565b82525050565b6179528161951d565b82525050565b6179618161952f565b82525050565b6000617972826192c0565b61797c81856192fa565b935061798c818560208601619565565b617995816195a2565b840191505092915050565b60006179ab826192b5565b6179b581856192fa565b93506179c5818560208601619565565b6179ce816195a2565b840191505092915050565b60006179e6601f836192fa565b91507f43616e6e6f74207472616e7366657220746f20746869732061646472657373006000830152602082019050919050565b6000617a266035836192fa565b91507f596f75206d757374206265206e6f6d696e61746564206265666f726520796f7560008301527f2063616e20616363657074206f776e65727368697000000000000000000000006020830152604082019050919050565b6000617a8c6013836192fa565b91507f4f776e6572206f6e6c792066756e6374696f6e000000000000000000000000006000830152602082019050919050565b6000617acc601e836192fa565b91507f4f6e6c792045786368616e6765722063616e20696e766f6b65207468697300006000830152602082019050919050565b6000617b0c601d836192fa565b91507f43616c6c6572206973206e6f7420616c6c6f77656420746f206d696e740000006000830152602082019050919050565b6000617b4c602b836192fa565b91507f43616e6e6f74207472616e73666572206d6f7265207468616e2074686520747260008301527f616e736665727261626c650000000000000000000000000000000000000000006020830152604082019050919050565b6000617bb2600b836192fa565b91507f4d696e74206661696c65640000000000000000000000000000000000000000006000830152602082019050919050565b6000617bf2601b836192fa565b91507f536166654d6174683a206164646974696f6e206f766572666c6f7700000000006000830152602082019050919050565b6000617c3260288361930b565b91507f45786368616e67655265636c61696d28616464726573732c627974657333322c60008301527f75696e74323536290000000000000000000000000000000000000000000000006020830152602882019050919050565b6000617c98603e8361930b565b91507f50796e746845786368616e676528616464726573732c627974657333322c756960008301527f6e743235362c627974657333322c75696e743235362c616464726573732900006020830152603e82019050919050565b6000617cfe601e836192fa565b91507f536166654d6174683a207375627472616374696f6e206f766572666c6f7700006000830152602082019050919050565b6000617d3e6017836192fa565b91507f616464726573732063616e6e6f7420626520656d7074790000000000000000006000830152602082019050919050565b6000617d7e601b836192fa565b91507f43616e6e6f742062652072756e206f6e2074686973206c6179657200000000006000830152602082019050919050565b6000617dbe60118361930b565b91507f4d697373696e6720616464726573733a200000000000000000000000000000006000830152601182019050919050565b6000617dfe6015836192fa565b91507f4d696e74206973206e6f7420617661696c61626c6500000000000000000000006000830152602082019050919050565b6000617e3e601b836192fa565b91507f52657761726473446973747269627574696f6e206e6f742073657400000000006000830152602082019050919050565b6000617e7e600e836192fa565b91507f6275726e696e67206661696c65640000000000000000000000000000000000006000830152602082019050919050565b6000617ebe601a836192fa565b91507f496e76616c6964206e6574776f726b20646562742073686172650000000000006000830152602082019050919050565b6000617efe602f836192fa565b91507f4f6e6c792074686520636f6e7472616374206f776e6572206d6179207065726660008301527f6f726d207468697320616374696f6e00000000000000000000000000000000006020830152604082019050919050565b6000617f6460218361930b565b91507f417070726f76616c28616464726573732c616464726573732c75696e7432353660008301527f29000000000000000000000000000000000000000000000000000000000000006020830152602182019050919050565b6000617fca6013836192fa565b91507f4e6f7420616c6c6f77656420746f206d696e74000000000000000000000000006000830152602082019050919050565b600061800a601f836192fa565b91507f412070796e7468206f722050455249207261746520697320696e76616c6964006000830152602082019050919050565b600061804a6021836192fa565b91507f536166654d6174683a206d756c7469706c69636174696f6e206f766572666c6f60008301527f77000000000000000000000000000000000000000000000000000000000000006020830152604082019050919050565b60006180b060278361930b565b91507f45786368616e676552656261746528616464726573732c627974657333322c7560008301527f696e7432353629000000000000000000000000000000000000000000000000006020830152602782019050919050565b600061811660298361930b565b91507f45786368616e6765547261636b696e6728627974657333322c6279746573333260008301527f2c75696e743235362900000000000000000000000000000000000000000000006020830152602982019050919050565b600061817c6015836192fa565b91507f666565206973206e6f742073756666696369656e7400000000000000000000006000830152602082019050919050565b60006181bc601a8361930b565b91507f546f6b656e5374617465557064617465642861646472657373290000000000006000830152601a82019050919050565b60006181fc60328361930b565b91507f4163636f756e744c69717569646174656428616464726573732c75696e74323560008301527f362c75696e743235362c616464726573732900000000000000000000000000006020830152603282019050919050565b600061826260198361930b565b91507f5265736f6c766572206d697373696e67207461726765743a20000000000000006000830152601982019050919050565b60006182a26017836192fa565b91507f4163636f756e74206973206f6e20626c61636b6c6973740000000000000000006000830152602082019050919050565b60006182e2600c836192fa565b91507f4e6f20636c61696d61626c6500000000000000000000000000000000000000006000830152602082019050919050565b60006183226015836192fa565b91507f43616c6c6572206973206e6f74206d61746368656400000000000000000000006000830152602082019050919050565b60006183626015836192fa565b91507f4e6f20737570706c79206973206d696e7461626c6500000000000000000000006000830152602082019050919050565b60006183a260218361930b565b91507f5472616e7366657228616464726573732c616464726573732c75696e7432353660008301527f29000000000000000000000000000000000000000000000000000000000000006020830152602182019050919050565b60006184086027836192fa565b91507f43616e6e6f74207472616e73666572207374616b6564206f7220657363726f7760008301527f65642050455249000000000000000000000000000000000000000000000000006020830152604082019050919050565b600061846e6014836192fa565b91507f43616e6e6f74207472616e73666572207a65726f0000000000000000000000006000830152602082019050919050565b60006184ae6017836192fa565b91507f4f6e6c79207468652070726f78792063616e2063616c6c0000000000000000006000830152602082019050919050565b60006184ee6020836192fa565b91507f526571756972656420636f6e7472616374206973206e6f7420736574207965746000830152602082019050919050565b606082016185326000830183619316565b61853f6000850182617854565b5061854d6020830183619316565b61855a6020850182617854565b50618568604083018361932d565b618575604085018261858a565b50505050565b618584816193cc565b82525050565b618593816193d6565b82525050565b6185a2816193d6565b82525050565b60006185b382617c25565b9150819050919050565b60006185c882617c8b565b9150819050919050565b60006185dd82617db1565b91506185e98284617872565b60208201915081905092915050565b600061860382617f57565b9150819050919050565b6000618618826180a3565b9150819050919050565b600061862d82618109565b9150819050919050565b6000618642826181af565b9150819050919050565b6000618657826181ef565b9150819050919050565b600061866c82618255565b91506186788284617872565b60208201915081905092915050565b600061869282618395565b9150819050919050565b60006020820190506186b160008301846177d8565b92915050565b60006020820190506186cc60008301846177ba565b92915050565b60006020820190506186e760008301846177c9565b92915050565b600060408201905061870260008301856177ba565b61870f602083018461857b565b9392505050565b600060408201905061872b60008301856177d8565b61873860208301846177d8565b9392505050565b600060a08201905061875460008301886177d8565b61876160208301876177d8565b61876e6040830186617863565b61877b606083018561857b565b6187886080830184617863565b9695505050505050565b600060e0820190506187a7600083018a6177d8565b6187b460208301896177d8565b6187c16040830188617863565b6187ce606083018761857b565b6187db6080830186617863565b6187e860a08301856177d8565b6187f560c0830184617863565b98975050505050505050565b600060608201905061881660008301866177d8565b61882360208301856177d8565b618830604083018461857b565b949350505050565b600060408201905061884d60008301856177d8565b61885a6020830184617863565b9392505050565b600060608201905061887660008301866177d8565b6188836020830185617863565b618890604083018461857b565b949350505050565b600060a0820190506188ad60008301886177d8565b6188ba6020830187617863565b6188c7604083018661857b565b6188d46060830185617863565b6188e160808301846177d8565b9695505050505050565b600060e082019050618900600083018a6177d8565b61890d6020830189617863565b61891a604083018861857b565b6189276060830187617863565b61893460808301866177d8565b61894160a08301856177d8565b61894e60c0830184617863565b98975050505050505050565b600060408201905061896f60008301856177d8565b61897c602083018461857b565b9392505050565b600060608201905061899860008301866177d8565b6189a5602083018561857b565b6189b260408301846177d8565b949350505050565b600060c0820190506189cf60008301876177d8565b6189dc602083018661857b565b6189e9604083018561857b565b6189f66060830184618521565b95945050505050565b60006020820190508181036000830152618a1981846177e7565b905092915050565b6000602082019050618a366000830184617845565b92915050565b6000602082019050618a516000830184617863565b92915050565b6000604082019050618a6c6000830185617863565b618a7960208301846177d8565b9392505050565b6000604082019050618a956000830185617863565b618aa26020830184617845565b9392505050565b6000604082019050618abe6000830185617863565b618acb6020830184617863565b9392505050565b6000604082019050618ae76000830185617863565b8181036020830152618af98184617967565b90509392505050565b6000604082019050618b176000830185617863565b618b24602083018461857b565b9392505050565b600060a082019050618b406000830188617863565b618b4d602083018761857b565b618b5a6040830186617863565b618b67606083018561857b565b618b7460808301846177d8565b9695505050505050565b600060c0820190508181036000830152618b988189617889565b9050618ba7602083018861793a565b618bb46040830187617863565b618bc1606083018661792b565b618bce608083018561792b565b618bdb60a083018461792b565b979650505050505050565b600060c0820190508181036000830152618c008189617889565b9050618c0f6020830188617949565b618c1c6040830187617863565b618c296060830186617863565b618c36608083018561792b565b618c4360a083018461792b565b979650505050505050565b600060c0820190508181036000830152618c688189617889565b9050618c776020830188617958565b618c846040830187617863565b618c916060830186617863565b618c9e6080830185617863565b618cab60a083018461792b565b979650505050505050565b6000602082019050618ccb60008301846178c2565b92915050565b6000602082019050618ce660008301846178d1565b92915050565b6000602082019050618d0160008301846178e0565b92915050565b6000602082019050618d1c60008301846178ef565b92915050565b6000602082019050618d37600083018461790d565b92915050565b6000602082019050618d52600083018461791c565b92915050565b60006020820190508181036000830152618d7281846179a0565b905092915050565b60006020820190508181036000830152618d948184617967565b905092915050565b60006020820190508181036000830152618db5816179d9565b9050919050565b60006020820190508181036000830152618dd581617a19565b9050919050565b60006020820190508181036000830152618df581617a7f565b9050919050565b60006020820190508181036000830152618e1581617abf565b9050919050565b60006020820190508181036000830152618e3581617aff565b9050919050565b60006020820190508181036000830152618e5581617b3f565b9050919050565b60006020820190508181036000830152618e7581617ba5565b9050919050565b60006020820190508181036000830152618e9581617be5565b9050919050565b60006020820190508181036000830152618eb581617cf1565b9050919050565b60006020820190508181036000830152618ed581617d31565b9050919050565b60006020820190508181036000830152618ef581617d71565b9050919050565b60006020820190508181036000830152618f1581617df1565b9050919050565b60006020820190508181036000830152618f3581617e31565b9050919050565b60006020820190508181036000830152618f5581617e71565b9050919050565b60006020820190508181036000830152618f7581617eb1565b9050919050565b60006020820190508181036000830152618f9581617ef1565b9050919050565b60006020820190508181036000830152618fb581617fbd565b9050919050565b60006020820190508181036000830152618fd581617ffd565b9050919050565b60006020820190508181036000830152618ff58161803d565b9050919050565b600060208201905081810360008301526190158161816f565b9050919050565b6000602082019050818103600083015261903581618295565b9050919050565b60006020820190508181036000830152619055816182d5565b9050919050565b6000602082019050818103600083015261907581618315565b9050919050565b6000602082019050818103600083015261909581618355565b9050919050565b600060208201905081810360008301526190b5816183fb565b9050919050565b600060208201905081810360008301526190d581618461565b9050919050565b600060208201905081810360008301526190f5816184a1565b9050919050565b60006020820190508181036000830152619115816184e1565b9050919050565b6000602082019050619131600083018461857b565b92915050565b600060408201905061914c600083018561857b565b61915960208301846178fe565b9392505050565b6000604082019050619175600083018561857b565b619182602083018461857b565b9392505050565b600060608201905061919e600083018661857b565b6191ab602083018561857b565b6191b860408301846177d8565b949350505050565b60006060820190506191d5600083018661857b565b6191e2602083018561857b565b6191ef604083018461857b565b949350505050565b600060208201905061920c6000830184618599565b92915050565b6000604051905081810181811067ffffffffffffffff8211171561923557600080fd5b8060405250919050565b600067ffffffffffffffff82111561925657600080fd5b602082029050602081019050919050565b600067ffffffffffffffff82111561927e57600080fd5b602082029050602081019050919050565b6000819050602082019050919050565b600081519050919050565b600081519050919050565b600081519050919050565b600081519050919050565b6000602082019050919050565b600082825260208201905092915050565b600082825260208201905092915050565b600082825260208201905092915050565b600081905092915050565b60006193256020840184616e48565b905092915050565b600061933c6020840184616f41565b905092915050565b600061934f826193ac565b9050919050565b6000619361826193ac565b9050919050565b60008115159050919050565b6000819050919050565b600061938982619344565b9050919050565b600061939b82619344565b9050919050565b6000819050919050565b600073ffffffffffffffffffffffffffffffffffffffff82169050919050565b6000819050919050565b600060ff82169050919050565b60006193ee82619541565b9050919050565b600061940082619407565b9050919050565b6000619412826193ac565b9050919050565b60006194248261942b565b9050919050565b6000619436826193ac565b9050919050565b60006194488261944f565b9050919050565b600061945a826193ac565b9050919050565b600061946c82619473565b9050919050565b600061947e826193ac565b9050919050565b600061949082619497565b9050919050565b60006194a2826193ac565b9050919050565b60006194b4826194bb565b9050919050565b60006194c6826193ac565b9050919050565b60006194d8826194df565b9050919050565b60006194ea826193ac565b9050919050565b60006195046194ff836193a2565b6195b3565b9050919050565b6000619516826193cc565b9050919050565b6000619528826193cc565b9050919050565b600061953a826193cc565b9050919050565b600061954c82619553565b9050919050565b600061955e826193ac565b9050919050565b60005b83811015619583578082015181840152602081019050619568565b83811115619592576000848401525b50505050565b6000819050919050565b6000601f19601f8301169050919050565b60008160001b9050919050565b6195c981619344565b81146195d457600080fd5b50565b6195e081619356565b81146195eb57600080fd5b50565b6195f781619368565b811461960257600080fd5b50565b61960e81619374565b811461961957600080fd5b50565b6196258161937e565b811461963057600080fd5b50565b61963c81619390565b811461964757600080fd5b50565b619653816193cc565b811461965e57600080fd5b50565b61966a816193d6565b811461967557600080fd5b5056fea365627a7a72315820eb6efcb19b54c34d04be269e851b8de7c6c9e5ba4b6c502b8f0deba931bf63996c6578706572696d656e74616cf564736f6c63430005100040",
  "linkReferences": {
    "contracts/SafeDecimalMath.sol": {
      "SafeDecimalMath": [
        {
          "length": 20,
          "start": 17386
        }
      ]
    }
  },
  "deployedLinkReferences": {
    "contracts/SafeDecimalMath.sol": {
      "SafeDecimalMath": [
        {
          "length": 20,
          "start": 15191
        }
      ]
    }
  }
}